{
  "_format": "hh-sol-artifact-1",
  "contractName": "NFTFactory",
  "address": "0xfEB63802596dFF444709615545cBd1b2fAA19Fa4",
  "sourceName": "contracts/NFTFactory.sol",
  "abi": [
    {
      "anonymous": false,
      "inputs": [
        {
          "indexed": true,
          "internalType": "address",
          "name": "collection",
          "type": "address"
        },
        {
          "indexed": false,
          "internalType": "string",
          "name": "name",
          "type": "string"
        },
        {
          "indexed": false,
          "internalType": "string",
          "name": "symbol",
          "type": "string"
        },
        {
          "indexed": false,
          "internalType": "address",
          "name": "initialOwner",
          "type": "address"
        },
        {
          "indexed": false,
          "internalType": "uint256",
          "name": "maxSupply",
          "type": "uint256"
        },
        {
          "indexed": false,
          "internalType": "uint256",
          "name": "royaltyFee",
          "type": "uint256"
        },
        {
          "indexed": false,
          "internalType": "string",
          "name": "contractURI",
          "type": "string"
        }
      ],
      "name": "ERC721CollectionCreated",
      "type": "event"
    },
    {
      "inputs": [
        {
          "internalType": "string",
          "name": "name",
          "type": "string"
        },
        {
          "internalType": "string",
          "name": "symbol",
          "type": "string"
        },
        {
          "internalType": "address",
          "name": "initialOwner",
          "type": "address"
        },
        {
          "internalType": "uint256",
          "name": "maxSupply",
          "type": "uint256"
        },
        {
          "internalType": "uint256",
          "name": "royaltyFee",
          "type": "uint256"
        },
        {
          "internalType": "string",
          "name": "contractURI",
          "type": "string"
        }
      ],
      "name": "createERC721Collection",
      "outputs": [],
      "stateMutability": "nonpayable",
      "type": "function"
    },
    {
      "inputs": [
        {
          "internalType": "uint256",
          "name": "",
          "type": "uint256"
        }
      ],
      "name": "deployedContracts",
      "outputs": [
        {
          "internalType": "address",
          "name": "",
          "type": "address"
        }
      ],
      "stateMutability": "view",
      "type": "function"
    },
    {
      "inputs": [],
      "name": "getAllDeployedContracts",
      "outputs": [
        {
          "internalType": "address[]",
          "name": "",
          "type": "address[]"
        }
      ],
      "stateMutability": "view",
      "type": "function"
    },
    {
      "inputs": [
        {
          "internalType": "address",
          "name": "owner",
          "type": "address"
        }
      ],
      "name": "getDeployedContractsByOwner",
      "outputs": [
        {
          "internalType": "address[]",
          "name": "",
          "type": "address[]"
        }
      ],
      "stateMutability": "view",
      "type": "function"
    },
    {
      "inputs": [],
      "name": "operatorAddress",
      "outputs": [
        {
          "internalType": "address",
          "name": "",
          "type": "address"
        }
      ],
      "stateMutability": "view",
      "type": "function"
    },
    {
      "inputs": [
        {
          "internalType": "address",
          "name": "",
          "type": "address"
        },
        {
          "internalType": "uint256",
          "name": "",
          "type": "uint256"
        }
      ],
      "name": "ownerToDeployedContracts",
      "outputs": [
        {
          "internalType": "address",
          "name": "",
          "type": "address"
        }
      ],
      "stateMutability": "view",
      "type": "function"
    },
    {
      "inputs": [
        {
          "internalType": "address",
          "name": "newOperatorAddress",
          "type": "address"
        }
      ],
      "name": "updateOperatorAddress",
      "outputs": [],
      "stateMutability": "nonpayable",
      "type": "function"
    }
  ],
  "bytecode": "0x608060405234801561001057600080fd5b50614901806100206000396000f3fe60806040523480156200001157600080fd5b5060043610620000885760003560e01c80636c9364b211620000635780636c9364b214620001055780639ad1ee101462000127578063d21d524f146200015d578063d7c99fcc146200017d5762000088565b8063127effb2146200008d5780634799526614620000af578063590598c214620000cf575b600080fd5b62000097620001b3565b604051620000a69190620006a3565b60405180910390f35b620000cd6004803603810190620000c7919062000705565b620001d9565b005b620000ed6004803603810190620000e7919062000705565b6200021d565b604051620000fc919062000805565b60405180910390f35b6200010f620002eb565b6040516200011e919062000805565b60405180910390f35b6200014560048036038101906200013f919062000864565b6200037b565b604051620001549190620006a3565b60405180910390f35b6200017b6004803603810190620001759190620009f8565b620003bb565b005b6200019b600480360381019062000195919062000af1565b62000601565b604051620001aa9190620006a3565b60405180910390f35b600260009054906101000a900473ffffffffffffffffffffffffffffffffffffffff1681565b80600260006101000a81548173ffffffffffffffffffffffffffffffffffffffff021916908373ffffffffffffffffffffffffffffffffffffffff16021790555050565b60606000808373ffffffffffffffffffffffffffffffffffffffff1673ffffffffffffffffffffffffffffffffffffffff168152602001908152602001600020805480602002602001604051908101604052809291908181526020018280548015620002df57602002820191906000526020600020905b8160009054906101000a900473ffffffffffffffffffffffffffffffffffffffff1673ffffffffffffffffffffffffffffffffffffffff168152602001906001019080831162000294575b50505050509050919050565b606060018054806020026020016040519081016040528092919081815260200182805480156200037157602002820191906000526020600020905b8160009054906101000a900473ffffffffffffffffffffffffffffffffffffffff1673ffffffffffffffffffffffffffffffffffffffff168152602001906001019080831162000326575b5050505050905090565b600181815481106200038c57600080fd5b906000526020600020016000915054906101000a900473ffffffffffffffffffffffffffffffffffffffff1681565b6000848787868686604051620003d19062000650565b620003e29695949392919062000bd2565b604051809103906000f080158015620003ff573d6000803e3d6000fd5b5090508073ffffffffffffffffffffffffffffffffffffffff1663a22cb465600260009054906101000a900473ffffffffffffffffffffffffffffffffffffffff1660016040518363ffffffff1660e01b81526004016200046292919062000c71565b600060405180830381600087803b1580156200047d57600080fd5b505af115801562000492573d6000803e3d6000fd5b5050505060008190506001819080600181540180825580915050600190039060005260206000200160009091909190916101000a81548173ffffffffffffffffffffffffffffffffffffffff021916908373ffffffffffffffffffffffffffffffffffffffff1602179055506000808773ffffffffffffffffffffffffffffffffffffffff1673ffffffffffffffffffffffffffffffffffffffff168152602001908152602001600020819080600181540180825580915050600190039060005260206000200160009091909190916101000a81548173ffffffffffffffffffffffffffffffffffffffff021916908373ffffffffffffffffffffffffffffffffffffffff1602179055508073ffffffffffffffffffffffffffffffffffffffff167fb8360ffb8249c24ad4150bbb0c1cad9c0e5e62aedc3cc3d69802c3f2357f3e56898989898989604051620005ef9695949392919062000c9e565b60405180910390a25050505050505050565b600060205281600052604060002081815481106200061e57600080fd5b906000526020600020016000915091509054906101000a900473ffffffffffffffffffffffffffffffffffffffff1681565b613bab8062000d2183390190565b600073ffffffffffffffffffffffffffffffffffffffff82169050919050565b60006200068b826200065e565b9050919050565b6200069d816200067e565b82525050565b6000602082019050620006ba600083018462000692565b92915050565b6000604051905090565b600080fd5b600080fd5b620006df816200067e565b8114620006eb57600080fd5b50565b600081359050620006ff81620006d4565b92915050565b6000602082840312156200071e576200071d620006ca565b5b60006200072e84828501620006ee565b91505092915050565b600081519050919050565b600082825260208201905092915050565b6000819050602082019050919050565b6200076e816200067e565b82525050565b600062000782838362000763565b60208301905092915050565b6000602082019050919050565b6000620007a88262000737565b620007b4818562000742565b9350620007c18362000753565b8060005b83811015620007f8578151620007dc888262000774565b9750620007e9836200078e565b925050600181019050620007c5565b5085935050505092915050565b600060208201905081810360008301526200082181846200079b565b905092915050565b6000819050919050565b6200083e8162000829565b81146200084a57600080fd5b50565b6000813590506200085e8162000833565b92915050565b6000602082840312156200087d576200087c620006ca565b5b60006200088d848285016200084d565b91505092915050565b600080fd5b600080fd5b6000601f19601f8301169050919050565b7f4e487b7100000000000000000000000000000000000000000000000000000000600052604160045260246000fd5b620008eb82620008a0565b810181811067ffffffffffffffff821117156200090d576200090c620008b1565b5b80604052505050565b600062000922620006c0565b9050620009308282620008e0565b919050565b600067ffffffffffffffff821115620009535762000952620008b1565b5b6200095e82620008a0565b9050602081019050919050565b82818337600083830152505050565b6000620009916200098b8462000935565b62000916565b905082815260208101848484011115620009b057620009af6200089b565b5b620009bd8482856200096b565b509392505050565b600082601f830112620009dd57620009dc62000896565b5b8135620009ef8482602086016200097a565b91505092915050565b60008060008060008060c0878903121562000a185762000a17620006ca565b5b600087013567ffffffffffffffff81111562000a395762000a38620006cf565b5b62000a4789828a01620009c5565b965050602087013567ffffffffffffffff81111562000a6b5762000a6a620006cf565b5b62000a7989828a01620009c5565b955050604062000a8c89828a01620006ee565b945050606062000a9f89828a016200084d565b935050608062000ab289828a016200084d565b92505060a087013567ffffffffffffffff81111562000ad65762000ad5620006cf565b5b62000ae489828a01620009c5565b9150509295509295509295565b6000806040838503121562000b0b5762000b0a620006ca565b5b600062000b1b85828601620006ee565b925050602062000b2e858286016200084d565b9150509250929050565b600081519050919050565b600082825260208201905092915050565b60005b8381101562000b7457808201518184015260208101905062000b57565b60008484015250505050565b600062000b8d8262000b38565b62000b99818562000b43565b935062000bab81856020860162000b54565b62000bb681620008a0565b840191505092915050565b62000bcc8162000829565b82525050565b600060c08201905062000be9600083018962000692565b818103602083015262000bfd818862000b80565b9050818103604083015262000c13818762000b80565b905062000c24606083018662000bc1565b62000c33608083018562000bc1565b81810360a083015262000c47818462000b80565b9050979650505050505050565b60008115159050919050565b62000c6b8162000c54565b82525050565b600060408201905062000c88600083018562000692565b62000c97602083018462000c60565b9392505050565b600060c082019050818103600083015262000cba818962000b80565b9050818103602083015262000cd0818862000b80565b905062000ce1604083018762000692565b62000cf0606083018662000bc1565b62000cff608083018562000bc1565b81810360a083015262000d13818462000b80565b905097965050505050505056fe60806040523480156200001157600080fd5b5060405162003bab38038062003bab83398181016040528101906200003791906200045e565b85858581600090816200004b919062000798565b5080600190816200005d919062000798565b5050506000600b60006101000a81548160ff021916908315150217905550600073ffffffffffffffffffffffffffffffffffffffff168173ffffffffffffffffffffffffffffffffffffffff1603620000f05760006040517f1e4fbdf7000000000000000000000000000000000000000000000000000000008152600401620000e7919062000890565b60405180910390fd5b62000101816200016560201b60201c565b506000830362000138577fffffffffffffffffffffffffffffffffffffffffffffffffffffffffffffffff600d8190555062000140565b82600d819055505b81600e8190555080600f908162000158919062000798565b50505050505050620008ad565b6000600b60019054906101000a900473ffffffffffffffffffffffffffffffffffffffff16905081600b60016101000a81548173ffffffffffffffffffffffffffffffffffffffff021916908373ffffffffffffffffffffffffffffffffffffffff1602179055508173ffffffffffffffffffffffffffffffffffffffff168173ffffffffffffffffffffffffffffffffffffffff167f8be0079c531659141344cd1fd0a4f28419497f9722a3daafe3b4186f6b6457e060405160405180910390a35050565b6000604051905090565b600080fd5b600080fd5b600073ffffffffffffffffffffffffffffffffffffffff82169050919050565b60006200026c826200023f565b9050919050565b6200027e816200025f565b81146200028a57600080fd5b50565b6000815190506200029e8162000273565b92915050565b600080fd5b600080fd5b6000601f19601f8301169050919050565b7f4e487b7100000000000000000000000000000000000000000000000000000000600052604160045260246000fd5b620002f982620002ae565b810181811067ffffffffffffffff821117156200031b576200031a620002bf565b5b80604052505050565b6000620003306200022b565b90506200033e8282620002ee565b919050565b600067ffffffffffffffff821115620003615762000360620002bf565b5b6200036c82620002ae565b9050602081019050919050565b60005b83811015620003995780820151818401526020810190506200037c565b60008484015250505050565b6000620003bc620003b68462000343565b62000324565b905082815260208101848484011115620003db57620003da620002a9565b5b620003e884828562000379565b509392505050565b600082601f830112620004085762000407620002a4565b5b81516200041a848260208601620003a5565b91505092915050565b6000819050919050565b620004388162000423565b81146200044457600080fd5b50565b60008151905062000458816200042d565b92915050565b60008060008060008060c087890312156200047e576200047d62000235565b5b60006200048e89828a016200028d565b965050602087015167ffffffffffffffff811115620004b257620004b16200023a565b5b620004c089828a01620003f0565b955050604087015167ffffffffffffffff811115620004e457620004e36200023a565b5b620004f289828a01620003f0565b94505060606200050589828a0162000447565b93505060806200051889828a0162000447565b92505060a087015167ffffffffffffffff8111156200053c576200053b6200023a565b5b6200054a89828a01620003f0565b9150509295509295509295565b600081519050919050565b7f4e487b7100000000000000000000000000000000000000000000000000000000600052602260045260246000fd5b60006002820490506001821680620005aa57607f821691505b602082108103620005c057620005bf62000562565b5b50919050565b60008190508160005260206000209050919050565b60006020601f8301049050919050565b600082821b905092915050565b6000600883026200062a7fffffffffffffffffffffffffffffffffffffffffffffffffffffffffffffffff82620005eb565b620006368683620005eb565b95508019841693508086168417925050509392505050565b6000819050919050565b600062000679620006736200066d8462000423565b6200064e565b62000423565b9050919050565b6000819050919050565b620006958362000658565b620006ad620006a48262000680565b848454620005f8565b825550505050565b600090565b620006c4620006b5565b620006d18184846200068a565b505050565b5b81811015620006f957620006ed600082620006ba565b600181019050620006d7565b5050565b601f82111562000748576200071281620005c6565b6200071d84620005db565b810160208510156200072d578190505b620007456200073c85620005db565b830182620006d6565b50505b505050565b600082821c905092915050565b60006200076d600019846008026200074d565b1980831691505092915050565b60006200078883836200075a565b9150826002028217905092915050565b620007a38262000557565b67ffffffffffffffff811115620007bf57620007be620002bf565b5b620007cb825462000591565b620007d8828285620006fd565b600060209050601f831160018114620008105760008415620007fb578287015190505b6200080785826200077a565b86555062000877565b601f1984166200082086620005c6565b60005b828110156200084a5784890151825560018201915060208501945060208101905062000823565b868310156200086a578489015162000866601f8916826200075a565b8355505b6001600288020188555050505b505050505050565b6200088a816200025f565b82525050565b6000602082019050620008a760008301846200087f565b92915050565b6132ee80620008bd6000396000f3fe608060405234801561001057600080fd5b50600436106101cf5760003560e01c8063715018a611610104578063b8997a97116100a2578063e8a3d48511610071578063e8a3d485146104f4578063e985e9c514610512578063f103b43314610542578063f2fde38b1461055e576101cf565b8063b8997a971461046c578063c87b56dd1461048a578063d204c45e146104ba578063d5abeb01146104d6576101cf565b80638da5cb5b116100de5780638da5cb5b146103f857806395d89b4114610416578063a22cb46514610434578063b88d4fde14610450576101cf565b8063715018a6146103c85780637e5b1e24146103d25780638456cb59146103ee576101cf565b80633f4ba83a116101715780634f6ccce71161014b5780634f6ccce71461031a5780635c975abb1461034a5780636352211e1461036857806370a0823114610398576101cf565b80633f4ba83a146102d857806342842e0e146102e257806342966c68146102fe576101cf565b8063095ea7b3116101ad578063095ea7b31461025257806318160ddd1461026e57806323b872dd1461028c5780632f745c59146102a8576101cf565b806301ffc9a7146101d457806306fdde0314610204578063081812fc14610222575b600080fd5b6101ee60048036038101906101e991906125b3565b61057a565b6040516101fb91906125fb565b60405180910390f35b61020c61058c565b60405161021991906126a6565b60405180910390f35b61023c600480360381019061023791906126fe565b61061e565b604051610249919061276c565b60405180910390f35b61026c600480360381019061026791906127b3565b61063a565b005b610276610650565b6040516102839190612802565b60405180910390f35b6102a660048036038101906102a1919061281d565b61065d565b005b6102c260048036038101906102bd91906127b3565b61075f565b6040516102cf9190612802565b60405180910390f35b6102e0610808565b005b6102fc60048036038101906102f7919061281d565b61081a565b005b610318600480360381019061031391906126fe565b61083a565b005b610334600480360381019061032f91906126fe565b610851565b6040516103419190612802565b60405180910390f35b6103526108c7565b60405161035f91906125fb565b60405180910390f35b610382600480360381019061037d91906126fe565b6108de565b60405161038f919061276c565b60405180910390f35b6103b260048036038101906103ad9190612870565b6108f0565b6040516103bf9190612802565b60405180910390f35b6103d06109aa565b005b6103ec60048036038101906103e791906129d2565b6109be565b005b6103f66109d9565b005b6104006109eb565b60405161040d919061276c565b60405180910390f35b61041e610a15565b60405161042b91906126a6565b60405180910390f35b61044e60048036038101906104499190612a47565b610aa7565b005b61046a60048036038101906104659190612b28565b610abd565b005b610474610ada565b6040516104819190612802565b60405180910390f35b6104a4600480360381019061049f91906126fe565b610ae0565b6040516104b191906126a6565b60405180910390f35b6104d460048036038101906104cf9190612bab565b610af2565b005b6104de610b43565b6040516104eb9190612802565b60405180910390f35b6104fc610b49565b60405161050991906126a6565b60405180910390f35b61052c60048036038101906105279190612c07565b610bd7565b60405161053991906125fb565b60405180910390f35b61055c600480360381019061055791906126fe565b610c6b565b005b61057860048036038101906105739190612870565b610cc6565b005b600061058582610d4c565b9050919050565b60606000805461059b90612c76565b80601f01602080910402602001604051908101604052809291908181526020018280546105c790612c76565b80156106145780601f106105e957610100808354040283529160200191610614565b820191906000526020600020905b8154815290600101906020018083116105f757829003601f168201915b5050505050905090565b600061062982610dad565b5061063382610e35565b9050919050565b61064c8282610647610e72565b610e7a565b5050565b6000600880549050905090565b600073ffffffffffffffffffffffffffffffffffffffff168273ffffffffffffffffffffffffffffffffffffffff16036106cf5760006040517f64a0ae920000000000000000000000000000000000000000000000000000000081526004016106c6919061276c565b60405180910390fd5b60006106e383836106de610e72565b610e8c565b90508373ffffffffffffffffffffffffffffffffffffffff168173ffffffffffffffffffffffffffffffffffffffff1614610759578382826040517f64283d7b00000000000000000000000000000000000000000000000000000000815260040161075093929190612ca7565b60405180910390fd5b50505050565b600061076a836108f0565b82106107af5782826040517fa57d13dc0000000000000000000000000000000000000000000000000000000081526004016107a6929190612cde565b60405180910390fd5b600660008473ffffffffffffffffffffffffffffffffffffffff1673ffffffffffffffffffffffffffffffffffffffff168152602001908152602001600020600083815260200190815260200160002054905092915050565b610810610ea2565b610818610f29565b565b61083583838360405180602001604052806000815250610abd565b505050565b61084d600082610848610e72565b610e8c565b5050565b600061085b610650565b82106108a1576000826040517fa57d13dc000000000000000000000000000000000000000000000000000000008152600401610898929190612cde565b60405180910390fd5b600882815481106108b5576108b4612d07565b5b90600052602060002001549050919050565b6000600b60009054906101000a900460ff16905090565b60006108e982610dad565b9050919050565b60008073ffffffffffffffffffffffffffffffffffffffff168273ffffffffffffffffffffffffffffffffffffffff16036109635760006040517f89c62b6400000000000000000000000000000000000000000000000000000000815260040161095a919061276c565b60405180910390fd5b600360008373ffffffffffffffffffffffffffffffffffffffff1673ffffffffffffffffffffffffffffffffffffffff168152602001908152602001600020549050919050565b6109b2610ea2565b6109bc6000610f8c565b565b6109c6610ea2565b80600f90816109d59190612ee2565b5050565b6109e1610ea2565b6109e9611052565b565b6000600b60019054906101000a900473ffffffffffffffffffffffffffffffffffffffff16905090565b606060018054610a2490612c76565b80601f0160208091040260200160405190810160405280929190818152602001828054610a5090612c76565b8015610a9d5780601f10610a7257610100808354040283529160200191610a9d565b820191906000526020600020905b815481529060010190602001808311610a8057829003601f168201915b5050505050905090565b610ab9610ab2610e72565b83836110b5565b5050565b610ac884848461065d565b610ad484848484611224565b50505050565b600e5481565b6060610aeb826113db565b9050919050565b610afa610ea2565b600d54610b05610650565b10610b0f57600080fd5b6000600c6000815480929190610b2490612fe3565b919050559050610b3483826114ee565b610b3e818361150c565b505050565b600d5481565b600f8054610b5690612c76565b80601f0160208091040260200160405190810160405280929190818152602001828054610b8290612c76565b8015610bcf5780601f10610ba457610100808354040283529160200191610bcf565b820191906000526020600020905b815481529060010190602001808311610bb257829003601f168201915b505050505081565b6000600560008473ffffffffffffffffffffffffffffffffffffffff1673ffffffffffffffffffffffffffffffffffffffff16815260200190815260200160002060008373ffffffffffffffffffffffffffffffffffffffff1673ffffffffffffffffffffffffffffffffffffffff16815260200190815260200160002060009054906101000a900460ff16905092915050565b610c73610ea2565b610c7b610650565b8111610cbc576040517f08c379a0000000000000000000000000000000000000000000000000000000008152600401610cb3906130c3565b60405180910390fd5b80600d8190555050565b610cce610ea2565b600073ffffffffffffffffffffffffffffffffffffffff168173ffffffffffffffffffffffffffffffffffffffff1603610d405760006040517f1e4fbdf7000000000000000000000000000000000000000000000000000000008152600401610d37919061276c565b60405180910390fd5b610d4981610f8c565b50565b6000634906490660e01b7bffffffffffffffffffffffffffffffffffffffffffffffffffffffff1916827bffffffffffffffffffffffffffffffffffffffffffffffffffffffff19161480610da65750610da582611568565b5b9050919050565b600080610db9836115e2565b9050600073ffffffffffffffffffffffffffffffffffffffff168173ffffffffffffffffffffffffffffffffffffffff1603610e2c57826040517f7e273289000000000000000000000000000000000000000000000000000000008152600401610e239190612802565b60405180910390fd5b80915050919050565b60006004600083815260200190815260200160002060009054906101000a900473ffffffffffffffffffffffffffffffffffffffff169050919050565b600033905090565b610e87838383600161161f565b505050565b6000610e998484846117e4565b90509392505050565b610eaa610e72565b73ffffffffffffffffffffffffffffffffffffffff16610ec86109eb565b73ffffffffffffffffffffffffffffffffffffffff1614610f2757610eeb610e72565b6040517f118cdaa7000000000000000000000000000000000000000000000000000000008152600401610f1e919061276c565b60405180910390fd5b565b610f31611802565b6000600b60006101000a81548160ff0219169083151502179055507f5db9ee0a495bf2e6ff9c91a7834c1ba4fdd244a5e8aa4e537bd38aeae4b073aa610f75610e72565b604051610f82919061276c565b60405180910390a1565b6000600b60019054906101000a900473ffffffffffffffffffffffffffffffffffffffff16905081600b60016101000a81548173ffffffffffffffffffffffffffffffffffffffff021916908373ffffffffffffffffffffffffffffffffffffffff1602179055508173ffffffffffffffffffffffffffffffffffffffff168173ffffffffffffffffffffffffffffffffffffffff167f8be0079c531659141344cd1fd0a4f28419497f9722a3daafe3b4186f6b6457e060405160405180910390a35050565b61105a611842565b6001600b60006101000a81548160ff0219169083151502179055507f62e78cea01bee320cd4e420270b5ea74000d11b0c9f74754ebdbfc544b05a25861109e610e72565b6040516110ab919061276c565b60405180910390a1565b600073ffffffffffffffffffffffffffffffffffffffff168273ffffffffffffffffffffffffffffffffffffffff160361112657816040517f5b08ba1800000000000000000000000000000000000000000000000000000000815260040161111d919061276c565b60405180910390fd5b80600560008573ffffffffffffffffffffffffffffffffffffffff1673ffffffffffffffffffffffffffffffffffffffff16815260200190815260200160002060008473ffffffffffffffffffffffffffffffffffffffff1673ffffffffffffffffffffffffffffffffffffffff16815260200190815260200160002060006101000a81548160ff0219169083151502179055508173ffffffffffffffffffffffffffffffffffffffff168373ffffffffffffffffffffffffffffffffffffffff167f17307eab39ab6107e8899845ad3d59bd9653f200f220920489ca2b5937696c318360405161121791906125fb565b60405180910390a3505050565b60008373ffffffffffffffffffffffffffffffffffffffff163b11156113d5578273ffffffffffffffffffffffffffffffffffffffff1663150b7a02611268610e72565b8685856040518563ffffffff1660e01b815260040161128a9493929190613138565b6020604051808303816000875af19250505080156112c657506040513d601f19601f820116820180604052508101906112c39190613199565b60015b61134a573d80600081146112f6576040519150601f19603f3d011682016040523d82523d6000602084013e6112fb565b606091505b50600081510361134257836040517f64a0ae92000000000000000000000000000000000000000000000000000000008152600401611339919061276c565b60405180910390fd5b805181602001fd5b63150b7a0260e01b7bffffffffffffffffffffffffffffffffffffffffffffffffffffffff1916817bffffffffffffffffffffffffffffffffffffffffffffffffffffffff1916146113d357836040517f64a0ae920000000000000000000000000000000000000000000000000000000081526004016113ca919061276c565b60405180910390fd5b505b50505050565b60606113e682610dad565b506000600a6000848152602001908152602001600020805461140790612c76565b80601f016020809104026020016040519081016040528092919081815260200182805461143390612c76565b80156114805780601f1061145557610100808354040283529160200191611480565b820191906000526020600020905b81548152906001019060200180831161146357829003601f168201915b505050505090506000611491611883565b905060008151036114a65781925050506114e9565b6000825111156114db5780826040516020016114c3929190613202565b604051602081830303815290604052925050506114e9565b6114e48461189a565b925050505b919050565b611508828260405180602001604052806000815250611903565b5050565b80600a6000848152602001908152602001600020908161152c9190612ee2565b507ff8e1a15aba9398e019f0b49df1a4fde98ee17ae345cb5f6b5e2c27f5033e8ce78260405161155c9190612802565b60405180910390a15050565b60007f780e9d63000000000000000000000000000000000000000000000000000000007bffffffffffffffffffffffffffffffffffffffffffffffffffffffff1916827bffffffffffffffffffffffffffffffffffffffffffffffffffffffff191614806115db57506115da8261191f565b5b9050919050565b60006002600083815260200190815260200160002060009054906101000a900473ffffffffffffffffffffffffffffffffffffffff169050919050565b80806116585750600073ffffffffffffffffffffffffffffffffffffffff168273ffffffffffffffffffffffffffffffffffffffff1614155b1561178c57600061166884610dad565b9050600073ffffffffffffffffffffffffffffffffffffffff168373ffffffffffffffffffffffffffffffffffffffff16141580156116d357508273ffffffffffffffffffffffffffffffffffffffff168173ffffffffffffffffffffffffffffffffffffffff1614155b80156116e657506116e48184610bd7565b155b1561172857826040517fa9fbf51f00000000000000000000000000000000000000000000000000000000815260040161171f919061276c565b60405180910390fd5b811561178a57838573ffffffffffffffffffffffffffffffffffffffff168273ffffffffffffffffffffffffffffffffffffffff167f8c5be1e5ebec7d5bd14f71427d1e84f3dd0314c0f7b2291e5b200ac8c7c3b92560405160405180910390a45b505b836004600085815260200190815260200160002060006101000a81548173ffffffffffffffffffffffffffffffffffffffff021916908373ffffffffffffffffffffffffffffffffffffffff16021790555050505050565b60006117ee611842565b6117f9848484611a01565b90509392505050565b61180a6108c7565b611840576040517f8dfc202b00000000000000000000000000000000000000000000000000000000815260040160405180910390fd5b565b61184a6108c7565b15611881576040517fd93c066500000000000000000000000000000000000000000000000000000000815260040160405180910390fd5b565b606060405180602001604052806000815250905090565b60606118a582610dad565b5060006118b0611883565b905060008151116118d057604051806020016040528060008152506118fb565b806118da84611b1e565b6040516020016118eb929190613202565b6040516020818303038152906040525b915050919050565b61190d8383611bec565b61191a6000848484611224565b505050565b60007f80ac58cd000000000000000000000000000000000000000000000000000000007bffffffffffffffffffffffffffffffffffffffffffffffffffffffff1916827bffffffffffffffffffffffffffffffffffffffffffffffffffffffff191614806119ea57507f5b5e139f000000000000000000000000000000000000000000000000000000007bffffffffffffffffffffffffffffffffffffffffffffffffffffffff1916827bffffffffffffffffffffffffffffffffffffffffffffffffffffffff1916145b806119fa57506119f982611ce5565b5b9050919050565b600080611a0f858585611d4f565b9050600073ffffffffffffffffffffffffffffffffffffffff168173ffffffffffffffffffffffffffffffffffffffff1603611a5357611a4e84611f69565b611a92565b8473ffffffffffffffffffffffffffffffffffffffff168173ffffffffffffffffffffffffffffffffffffffff1614611a9157611a908185611fb2565b5b5b600073ffffffffffffffffffffffffffffffffffffffff168573ffffffffffffffffffffffffffffffffffffffff1603611ad457611acf84612113565b611b13565b8473ffffffffffffffffffffffffffffffffffffffff168173ffffffffffffffffffffffffffffffffffffffff1614611b1257611b1185856121e4565b5b5b809150509392505050565b606060006001611b2d8461226f565b01905060008167ffffffffffffffff811115611b4c57611b4b6128a7565b5b6040519080825280601f01601f191660200182016040528015611b7e5781602001600182028036833780820191505090505b509050600082602001820190505b600115611be1578080600190039150507f3031323334353637383961626364656600000000000000000000000000000000600a86061a8153600a8581611bd557611bd4613226565b5b04945060008503611b8c575b819350505050919050565b600073ffffffffffffffffffffffffffffffffffffffff168273ffffffffffffffffffffffffffffffffffffffff1603611c5e5760006040517f64a0ae92000000000000000000000000000000000000000000000000000000008152600401611c55919061276c565b60405180910390fd5b6000611c6c83836000610e8c565b9050600073ffffffffffffffffffffffffffffffffffffffff168173ffffffffffffffffffffffffffffffffffffffff1614611ce05760006040517f73c6ac6e000000000000000000000000000000000000000000000000000000008152600401611cd7919061276c565b60405180910390fd5b505050565b60007f01ffc9a7000000000000000000000000000000000000000000000000000000007bffffffffffffffffffffffffffffffffffffffffffffffffffffffff1916827bffffffffffffffffffffffffffffffffffffffffffffffffffffffff1916149050919050565b600080611d5b846115e2565b9050600073ffffffffffffffffffffffffffffffffffffffff168373ffffffffffffffffffffffffffffffffffffffff1614611d9d57611d9c8184866123c2565b5b600073ffffffffffffffffffffffffffffffffffffffff168173ffffffffffffffffffffffffffffffffffffffff1614611e2e57611ddf60008560008061161f565b6001600360008373ffffffffffffffffffffffffffffffffffffffff1673ffffffffffffffffffffffffffffffffffffffff168152602001908152602001600020600082825403925050819055505b600073ffffffffffffffffffffffffffffffffffffffff168573ffffffffffffffffffffffffffffffffffffffff1614611eb1576001600360008773ffffffffffffffffffffffffffffffffffffffff1673ffffffffffffffffffffffffffffffffffffffff168152602001908152602001600020600082825401925050819055505b846002600086815260200190815260200160002060006101000a81548173ffffffffffffffffffffffffffffffffffffffff021916908373ffffffffffffffffffffffffffffffffffffffff160217905550838573ffffffffffffffffffffffffffffffffffffffff168273ffffffffffffffffffffffffffffffffffffffff167fddf252ad1be2c89b69c2b068fc378daa952ba7f163c4a11628f55a4df523b3ef60405160405180910390a4809150509392505050565b6008805490506009600083815260200190815260200160002081905550600881908060018154018082558091505060019003906000526020600020016000909190919091505550565b6000611fbd836108f0565b90506000600760008481526020019081526020016000205490508181146120a2576000600660008673ffffffffffffffffffffffffffffffffffffffff1673ffffffffffffffffffffffffffffffffffffffff168152602001908152602001600020600084815260200190815260200160002054905080600660008773ffffffffffffffffffffffffffffffffffffffff1673ffffffffffffffffffffffffffffffffffffffff168152602001908152602001600020600084815260200190815260200160002081905550816007600083815260200190815260200160002081905550505b6007600084815260200190815260200160002060009055600660008573ffffffffffffffffffffffffffffffffffffffff1673ffffffffffffffffffffffffffffffffffffffff16815260200190815260200160002060008381526020019081526020016000206000905550505050565b600060016008805490506121279190613255565b905060006009600084815260200190815260200160002054905060006008838154811061215757612156612d07565b5b90600052602060002001549050806008838154811061217957612178612d07565b5b9060005260206000200181905550816009600083815260200190815260200160002081905550600960008581526020019081526020016000206000905560088054806121c8576121c7613289565b5b6001900381819060005260206000200160009055905550505050565b600060016121f1846108f0565b6121fb9190613255565b905081600660008573ffffffffffffffffffffffffffffffffffffffff1673ffffffffffffffffffffffffffffffffffffffff168152602001908152602001600020600083815260200190815260200160002081905550806007600084815260200190815260200160002081905550505050565b600080600090507a184f03e93ff9f4daa797ed6e38ed64bf6a1f01000000000000000083106122cd577a184f03e93ff9f4daa797ed6e38ed64bf6a1f01000000000000000083816122c3576122c2613226565b5b0492506040810190505b6d04ee2d6d415b85acef8100000000831061230a576d04ee2d6d415b85acef81000000008381612300576122ff613226565b5b0492506020810190505b662386f26fc10000831061233957662386f26fc10000838161232f5761232e613226565b5b0492506010810190505b6305f5e1008310612362576305f5e100838161235857612357613226565b5b0492506008810190505b612710831061238757612710838161237d5761237c613226565b5b0492506004810190505b606483106123aa57606483816123a05761239f613226565b5b0492506002810190505b600a83106123b9576001810190505b80915050919050565b6123cd838383612486565b61248157600073ffffffffffffffffffffffffffffffffffffffff168373ffffffffffffffffffffffffffffffffffffffff160361244257806040517f7e2732890000000000000000000000000000000000000000000000000000000081526004016124399190612802565b60405180910390fd5b81816040517f177e802f000000000000000000000000000000000000000000000000000000008152600401612478929190612cde565b60405180910390fd5b505050565b60008073ffffffffffffffffffffffffffffffffffffffff168373ffffffffffffffffffffffffffffffffffffffff161415801561253e57508273ffffffffffffffffffffffffffffffffffffffff168473ffffffffffffffffffffffffffffffffffffffff1614806124ff57506124fe8484610bd7565b5b8061253d57508273ffffffffffffffffffffffffffffffffffffffff1661252583610e35565b73ffffffffffffffffffffffffffffffffffffffff16145b5b90509392505050565b6000604051905090565b600080fd5b600080fd5b60007fffffffff0000000000000000000000000000000000000000000000000000000082169050919050565b6125908161255b565b811461259b57600080fd5b50565b6000813590506125ad81612587565b92915050565b6000602082840312156125c9576125c8612551565b5b60006125d78482850161259e565b91505092915050565b60008115159050919050565b6125f5816125e0565b82525050565b600060208201905061261060008301846125ec565b92915050565b600081519050919050565b600082825260208201905092915050565b60005b83811015612650578082015181840152602081019050612635565b60008484015250505050565b6000601f19601f8301169050919050565b600061267882612616565b6126828185612621565b9350612692818560208601612632565b61269b8161265c565b840191505092915050565b600060208201905081810360008301526126c0818461266d565b905092915050565b6000819050919050565b6126db816126c8565b81146126e657600080fd5b50565b6000813590506126f8816126d2565b92915050565b60006020828403121561271457612713612551565b5b6000612722848285016126e9565b91505092915050565b600073ffffffffffffffffffffffffffffffffffffffff82169050919050565b60006127568261272b565b9050919050565b6127668161274b565b82525050565b6000602082019050612781600083018461275d565b92915050565b6127908161274b565b811461279b57600080fd5b50565b6000813590506127ad81612787565b92915050565b600080604083850312156127ca576127c9612551565b5b60006127d88582860161279e565b92505060206127e9858286016126e9565b9150509250929050565b6127fc816126c8565b82525050565b600060208201905061281760008301846127f3565b92915050565b60008060006060848603121561283657612835612551565b5b60006128448682870161279e565b93505060206128558682870161279e565b9250506040612866868287016126e9565b9150509250925092565b60006020828403121561288657612885612551565b5b60006128948482850161279e565b91505092915050565b600080fd5b600080fd5b7f4e487b7100000000000000000000000000000000000000000000000000000000600052604160045260246000fd5b6128df8261265c565b810181811067ffffffffffffffff821117156128fe576128fd6128a7565b5b80604052505050565b6000612911612547565b905061291d82826128d6565b919050565b600067ffffffffffffffff82111561293d5761293c6128a7565b5b6129468261265c565b9050602081019050919050565b82818337600083830152505050565b600061297561297084612922565b612907565b905082815260208101848484011115612991576129906128a2565b5b61299c848285612953565b509392505050565b600082601f8301126129b9576129b861289d565b5b81356129c9848260208601612962565b91505092915050565b6000602082840312156129e8576129e7612551565b5b600082013567ffffffffffffffff811115612a0657612a05612556565b5b612a12848285016129a4565b91505092915050565b612a24816125e0565b8114612a2f57600080fd5b50565b600081359050612a4181612a1b565b92915050565b60008060408385031215612a5e57612a5d612551565b5b6000612a6c8582860161279e565b9250506020612a7d85828601612a32565b9150509250929050565b600067ffffffffffffffff821115612aa257612aa16128a7565b5b612aab8261265c565b9050602081019050919050565b6000612acb612ac684612a87565b612907565b905082815260208101848484011115612ae757612ae66128a2565b5b612af2848285612953565b509392505050565b600082601f830112612b0f57612b0e61289d565b5b8135612b1f848260208601612ab8565b91505092915050565b60008060008060808587031215612b4257612b41612551565b5b6000612b508782880161279e565b9450506020612b618782880161279e565b9350506040612b72878288016126e9565b925050606085013567ffffffffffffffff811115612b9357612b92612556565b5b612b9f87828801612afa565b91505092959194509250565b60008060408385031215612bc257612bc1612551565b5b6000612bd08582860161279e565b925050602083013567ffffffffffffffff811115612bf157612bf0612556565b5b612bfd858286016129a4565b9150509250929050565b60008060408385031215612c1e57612c1d612551565b5b6000612c2c8582860161279e565b9250506020612c3d8582860161279e565b9150509250929050565b7f4e487b7100000000000000000000000000000000000000000000000000000000600052602260045260246000fd5b60006002820490506001821680612c8e57607f821691505b602082108103612ca157612ca0612c47565b5b50919050565b6000606082019050612cbc600083018661275d565b612cc960208301856127f3565b612cd6604083018461275d565b949350505050565b6000604082019050612cf3600083018561275d565b612d0060208301846127f3565b9392505050565b7f4e487b7100000000000000000000000000000000000000000000000000000000600052603260045260246000fd5b60008190508160005260206000209050919050565b60006020601f8301049050919050565b600082821b905092915050565b600060088302612d987fffffffffffffffffffffffffffffffffffffffffffffffffffffffffffffffff82612d5b565b612da28683612d5b565b95508019841693508086168417925050509392505050565b6000819050919050565b6000612ddf612dda612dd5846126c8565b612dba565b6126c8565b9050919050565b6000819050919050565b612df983612dc4565b612e0d612e0582612de6565b848454612d68565b825550505050565b600090565b612e22612e15565b612e2d818484612df0565b505050565b5b81811015612e5157612e46600082612e1a565b600181019050612e33565b5050565b601f821115612e9657612e6781612d36565b612e7084612d4b565b81016020851015612e7f578190505b612e93612e8b85612d4b565b830182612e32565b50505b505050565b600082821c905092915050565b6000612eb960001984600802612e9b565b1980831691505092915050565b6000612ed28383612ea8565b9150826002028217905092915050565b612eeb82612616565b67ffffffffffffffff811115612f0457612f036128a7565b5b612f0e8254612c76565b612f19828285612e55565b600060209050601f831160018114612f4c5760008415612f3a578287015190505b612f448582612ec6565b865550612fac565b601f198416612f5a86612d36565b60005b82811015612f8257848901518255600182019150602085019450602081019050612f5d565b86831015612f9f5784890151612f9b601f891682612ea8565b8355505b6001600288020188555050505b505050505050565b7f4e487b7100000000000000000000000000000000000000000000000000000000600052601160045260246000fd5b6000612fee826126c8565b91507fffffffffffffffffffffffffffffffffffffffffffffffffffffffffffffffff82036130205761301f612fb4565b5b600182019050919050565b7f4e6577206d617820737570706c79206d7573742062652067726561746572207460008201527f68616e206f7220657175616c20746f2063757272656e7420746f74616c20737560208201527f70706c7900000000000000000000000000000000000000000000000000000000604082015250565b60006130ad604483612621565b91506130b88261302b565b606082019050919050565b600060208201905081810360008301526130dc816130a0565b9050919050565b600081519050919050565b600082825260208201905092915050565b600061310a826130e3565b61311481856130ee565b9350613124818560208601612632565b61312d8161265c565b840191505092915050565b600060808201905061314d600083018761275d565b61315a602083018661275d565b61316760408301856127f3565b818103606083015261317981846130ff565b905095945050505050565b60008151905061319381612587565b92915050565b6000602082840312156131af576131ae612551565b5b60006131bd84828501613184565b91505092915050565b600081905092915050565b60006131dc82612616565b6131e681856131c6565b93506131f6818560208601612632565b80840191505092915050565b600061320e82856131d1565b915061321a82846131d1565b91508190509392505050565b7f4e487b7100000000000000000000000000000000000000000000000000000000600052601260045260246000fd5b6000613260826126c8565b915061326b836126c8565b925082820390508181111561328357613282612fb4565b5b92915050565b7f4e487b7100000000000000000000000000000000000000000000000000000000600052603160045260246000fdfea26469706673582212200537feaadde163099743a7aab71d392e2902dff454800d26fa601c5ebd68a3df64736f6c63430008180033a2646970667358221220fd0169462c0581f4e89ba574490fc10479ceca45822f6467ff3f5e9e782d719664736f6c63430008180033",
  "linkReferences": {},
  "deployedLinkReferences": {}
}