{
  "_format": "hh-sol-artifact-1",
  "contractName": "NFTMarketplace",
  "sourceName": "contracts/NFTMarketplace.sol",
  "address": "0xc299CB97275DD22b46FC38df04C46e8369DFD4C9",
  "abi": [
    {
      "inputs": [
        {
          "internalType": "address",
          "name": "initialOwner",
          "type": "address"
        },
        {
          "internalType": "uint256",
          "name": "_royaltyFee",
          "type": "uint256"
        },
        {
          "internalType": "uint256",
          "name": "_platformFee",
          "type": "uint256"
        },
        {
          "internalType": "address payable",
          "name": "_feeRecipient",
          "type": "address"
        }
      ],
      "stateMutability": "nonpayable",
      "type": "constructor"
    },
    {
      "inputs": [
        {
          "internalType": "address",
          "name": "owner",
          "type": "address"
        }
      ],
      "name": "OwnableInvalidOwner",
      "type": "error"
    },
    {
      "inputs": [
        {
          "internalType": "address",
          "name": "account",
          "type": "address"
        }
      ],
      "name": "OwnableUnauthorizedAccount",
      "type": "error"
    },
    {
      "inputs": [],
      "name": "ReentrancyGuardReentrantCall",
      "type": "error"
    },
    {
      "anonymous": false,
      "inputs": [
        {
          "indexed": true,
          "internalType": "uint256",
          "name": "marketId",
          "type": "uint256"
        },
        {
          "indexed": true,
          "internalType": "address",
          "name": "nftContract",
          "type": "address"
        },
        {
          "indexed": true,
          "internalType": "uint256",
          "name": "tokenId",
          "type": "uint256"
        },
        {
          "indexed": false,
          "internalType": "address",
          "name": "buyer",
          "type": "address"
        },
        {
          "indexed": false,
          "internalType": "uint256",
          "name": "price",
          "type": "uint256"
        }
      ],
      "name": "BidAccepted",
      "type": "event"
    },
    {
      "anonymous": false,
      "inputs": [
        {
          "indexed": true,
          "internalType": "uint256",
          "name": "marketId",
          "type": "uint256"
        },
        {
          "indexed": true,
          "internalType": "address",
          "name": "bidder",
          "type": "address"
        },
        {
          "indexed": false,
          "internalType": "uint256",
          "name": "amount",
          "type": "uint256"
        }
      ],
      "name": "BidPlaced",
      "type": "event"
    },
    {
      "anonymous": false,
      "inputs": [
        {
          "indexed": false,
          "internalType": "uint256",
          "name": "marketId",
          "type": "uint256"
        },
        {
          "indexed": true,
          "internalType": "address",
          "name": "nftContract",
          "type": "address"
        },
        {
          "indexed": true,
          "internalType": "uint256",
          "name": "tokenId",
          "type": "uint256"
        }
      ],
      "name": "NFTCancelled",
      "type": "event"
    },
    {
      "anonymous": false,
      "inputs": [
        {
          "indexed": false,
          "internalType": "uint256",
          "name": "marketId",
          "type": "uint256"
        },
        {
          "indexed": true,
          "internalType": "address",
          "name": "nftContract",
          "type": "address"
        },
        {
          "indexed": true,
          "internalType": "uint256",
          "name": "tokenId",
          "type": "uint256"
        },
        {
          "indexed": false,
          "internalType": "uint256",
          "name": "price",
          "type": "uint256"
        }
      ],
      "name": "NFTListed",
      "type": "event"
    },
    {
      "anonymous": false,
      "inputs": [
        {
          "indexed": false,
          "internalType": "uint256",
          "name": "marketId",
          "type": "uint256"
        },
        {
          "indexed": true,
          "internalType": "address",
          "name": "nftContract",
          "type": "address"
        },
        {
          "indexed": true,
          "internalType": "uint256",
          "name": "tokenId",
          "type": "uint256"
        },
        {
          "indexed": true,
          "internalType": "address",
          "name": "buyer",
          "type": "address"
        },
        {
          "indexed": false,
          "internalType": "uint256",
          "name": "price",
          "type": "uint256"
        }
      ],
      "name": "NFTSold",
      "type": "event"
    },
    {
      "anonymous": false,
      "inputs": [
        {
          "indexed": true,
          "internalType": "address",
          "name": "previousOwner",
          "type": "address"
        },
        {
          "indexed": true,
          "internalType": "address",
          "name": "newOwner",
          "type": "address"
        }
      ],
      "name": "OwnershipTransferred",
      "type": "event"
    },
    {
      "anonymous": false,
      "inputs": [
        {
          "indexed": true,
          "internalType": "address",
          "name": "user",
          "type": "address"
        },
        {
          "indexed": false,
          "internalType": "uint256",
          "name": "amount",
          "type": "uint256"
        }
      ],
      "name": "Withdraw",
      "type": "event"
    },
    {
      "inputs": [
        {
          "internalType": "uint256",
          "name": "marketId",
          "type": "uint256"
        }
      ],
      "name": "acceptBid",
      "outputs": [],
      "stateMutability": "nonpayable",
      "type": "function"
    },
    {
      "inputs": [
        {
          "internalType": "uint256",
          "name": "marketId",
          "type": "uint256"
        }
      ],
      "name": "buyNFT",
      "outputs": [],
      "stateMutability": "payable",
      "type": "function"
    },
    {
      "inputs": [
        {
          "internalType": "uint256",
          "name": "marketId",
          "type": "uint256"
        }
      ],
      "name": "cancelNFTListing",
      "outputs": [],
      "stateMutability": "nonpayable",
      "type": "function"
    },
    {
      "inputs": [],
      "name": "feeRecipient",
      "outputs": [
        {
          "internalType": "address payable",
          "name": "",
          "type": "address"
        }
      ],
      "stateMutability": "view",
      "type": "function"
    },
    {
      "inputs": [
        {
          "internalType": "address",
          "name": "nftContract",
          "type": "address"
        }
      ],
      "name": "getAllActivitiesForCollection",
      "outputs": [
        {
          "components": [
            {
              "internalType": "uint256",
              "name": "activityType",
              "type": "uint256"
            },
            {
              "internalType": "address",
              "name": "nftContract",
              "type": "address"
            },
            {
              "internalType": "uint256",
              "name": "tokenId",
              "type": "uint256"
            },
            {
              "internalType": "uint256",
              "name": "price",
              "type": "uint256"
            },
            {
              "internalType": "uint256",
              "name": "timestamp",
              "type": "uint256"
            },
            {
              "internalType": "uint256",
              "name": "marketId",
              "type": "uint256"
            },
            {
              "internalType": "address",
              "name": "user",
              "type": "address"
            }
          ],
          "internalType": "struct NFTMarketplace.ActivityLog[]",
          "name": "",
          "type": "tuple[]"
        }
      ],
      "stateMutability": "view",
      "type": "function"
    },
    {
      "inputs": [
        {
          "internalType": "uint256",
          "name": "marketId",
          "type": "uint256"
        }
      ],
      "name": "getAuctionDetails",
      "outputs": [
        {
          "internalType": "uint256",
          "name": "startTime",
          "type": "uint256"
        },
        {
          "internalType": "uint256",
          "name": "endTime",
          "type": "uint256"
        },
        {
          "internalType": "uint256",
          "name": "reservePrice",
          "type": "uint256"
        },
        {
          "internalType": "uint256",
          "name": "highestBid",
          "type": "uint256"
        },
        {
          "internalType": "address",
          "name": "highestBidder",
          "type": "address"
        }
      ],
      "stateMutability": "view",
      "type": "function"
    },
    {
      "inputs": [
        {
          "internalType": "uint256",
          "name": "marketId",
          "type": "uint256"
        }
      ],
      "name": "getBidsForMarketItem",
      "outputs": [
        {
          "components": [
            {
              "internalType": "address payable",
              "name": "bidder",
              "type": "address"
            },
            {
              "internalType": "uint256",
              "name": "amount",
              "type": "uint256"
            },
            {
              "internalType": "uint256",
              "name": "timestamp",
              "type": "uint256"
            }
          ],
          "internalType": "struct NFTMarketplace.Bid[]",
          "name": "",
          "type": "tuple[]"
        }
      ],
      "stateMutability": "view",
      "type": "function"
    },
    {
      "inputs": [
        {
          "internalType": "uint256",
          "name": "marketId",
          "type": "uint256"
        }
      ],
      "name": "getMarketItem",
      "outputs": [
        {
          "internalType": "address",
          "name": "nftContract",
          "type": "address"
        },
        {
          "internalType": "uint256",
          "name": "tokenId",
          "type": "uint256"
        },
        {
          "internalType": "uint256",
          "name": "price",
          "type": "uint256"
        },
        {
          "internalType": "address",
          "name": "creator",
          "type": "address"
        },
        {
          "internalType": "address",
          "name": "seller",
          "type": "address"
        }
      ],
      "stateMutability": "view",
      "type": "function"
    },
    {
      "inputs": [
        {
          "internalType": "address",
          "name": "nftContract",
          "type": "address"
        },
        {
          "internalType": "uint256",
          "name": "tokenId",
          "type": "uint256"
        }
      ],
      "name": "getNFTActivityLog",
      "outputs": [
        {
          "components": [
            {
              "internalType": "uint256",
              "name": "activityType",
              "type": "uint256"
            },
            {
              "internalType": "address",
              "name": "nftContract",
              "type": "address"
            },
            {
              "internalType": "uint256",
              "name": "tokenId",
              "type": "uint256"
            },
            {
              "internalType": "uint256",
              "name": "price",
              "type": "uint256"
            },
            {
              "internalType": "uint256",
              "name": "timestamp",
              "type": "uint256"
            },
            {
              "internalType": "uint256",
              "name": "marketId",
              "type": "uint256"
            },
            {
              "internalType": "address",
              "name": "user",
              "type": "address"
            }
          ],
          "internalType": "struct NFTMarketplace.ActivityLog[]",
          "name": "",
          "type": "tuple[]"
        }
      ],
      "stateMutability": "view",
      "type": "function"
    },
    {
      "inputs": [
        {
          "internalType": "address",
          "name": "user",
          "type": "address"
        }
      ],
      "name": "getUserActivityLog",
      "outputs": [
        {
          "components": [
            {
              "internalType": "uint256",
              "name": "activityType",
              "type": "uint256"
            },
            {
              "internalType": "address",
              "name": "nftContract",
              "type": "address"
            },
            {
              "internalType": "uint256",
              "name": "tokenId",
              "type": "uint256"
            },
            {
              "internalType": "uint256",
              "name": "price",
              "type": "uint256"
            },
            {
              "internalType": "uint256",
              "name": "timestamp",
              "type": "uint256"
            },
            {
              "internalType": "uint256",
              "name": "marketId",
              "type": "uint256"
            },
            {
              "internalType": "address",
              "name": "user",
              "type": "address"
            }
          ],
          "internalType": "struct NFTMarketplace.ActivityLog[]",
          "name": "",
          "type": "tuple[]"
        }
      ],
      "stateMutability": "view",
      "type": "function"
    },
    {
      "inputs": [
        {
          "internalType": "address",
          "name": "nftContract",
          "type": "address"
        },
        {
          "internalType": "uint256",
          "name": "tokenId",
          "type": "uint256"
        },
        {
          "internalType": "uint256",
          "name": "price",
          "type": "uint256"
        },
        {
          "internalType": "uint256",
          "name": "startTime",
          "type": "uint256"
        },
        {
          "internalType": "uint256",
          "name": "endTime",
          "type": "uint256"
        },
        {
          "internalType": "uint256",
          "name": "reservePrice",
          "type": "uint256"
        }
      ],
      "name": "listNFTForSale",
      "outputs": [],
      "stateMutability": "nonpayable",
      "type": "function"
    },
    {
      "inputs": [
        {
          "internalType": "uint256",
          "name": "",
          "type": "uint256"
        }
      ],
      "name": "marketItemAuctions",
      "outputs": [
        {
          "internalType": "uint256",
          "name": "startTime",
          "type": "uint256"
        },
        {
          "internalType": "uint256",
          "name": "endTime",
          "type": "uint256"
        },
        {
          "internalType": "uint256",
          "name": "reservePrice",
          "type": "uint256"
        },
        {
          "internalType": "uint256",
          "name": "highestBid",
          "type": "uint256"
        },
        {
          "internalType": "address payable",
          "name": "highestBidder",
          "type": "address"
        }
      ],
      "stateMutability": "view",
      "type": "function"
    },
    {
      "inputs": [
        {
          "internalType": "uint256",
          "name": "",
          "type": "uint256"
        },
        {
          "internalType": "uint256",
          "name": "",
          "type": "uint256"
        }
      ],
      "name": "marketItemBids",
      "outputs": [
        {
          "internalType": "address payable",
          "name": "bidder",
          "type": "address"
        },
        {
          "internalType": "uint256",
          "name": "amount",
          "type": "uint256"
        },
        {
          "internalType": "uint256",
          "name": "timestamp",
          "type": "uint256"
        }
      ],
      "stateMutability": "view",
      "type": "function"
    },
    {
      "inputs": [
        {
          "internalType": "uint256",
          "name": "",
          "type": "uint256"
        }
      ],
      "name": "marketItems",
      "outputs": [
        {
          "internalType": "address",
          "name": "nftContract",
          "type": "address"
        },
        {
          "internalType": "uint256",
          "name": "tokenId",
          "type": "uint256"
        },
        {
          "internalType": "uint256",
          "name": "price",
          "type": "uint256"
        },
        {
          "internalType": "address payable",
          "name": "creator",
          "type": "address"
        },
        {
          "internalType": "address payable",
          "name": "seller",
          "type": "address"
        }
      ],
      "stateMutability": "view",
      "type": "function"
    },
    {
      "inputs": [],
      "name": "nextMarketId",
      "outputs": [
        {
          "internalType": "uint256",
          "name": "",
          "type": "uint256"
        }
      ],
      "stateMutability": "view",
      "type": "function"
    },
    {
      "inputs": [
        {
          "internalType": "address",
          "name": "",
          "type": "address"
        },
        {
          "internalType": "uint256",
          "name": "",
          "type": "uint256"
        },
        {
          "internalType": "uint256",
          "name": "",
          "type": "uint256"
        }
      ],
      "name": "nftActivityLogs",
      "outputs": [
        {
          "internalType": "uint256",
          "name": "activityType",
          "type": "uint256"
        },
        {
          "internalType": "address",
          "name": "nftContract",
          "type": "address"
        },
        {
          "internalType": "uint256",
          "name": "tokenId",
          "type": "uint256"
        },
        {
          "internalType": "uint256",
          "name": "price",
          "type": "uint256"
        },
        {
          "internalType": "uint256",
          "name": "timestamp",
          "type": "uint256"
        },
        {
          "internalType": "uint256",
          "name": "marketId",
          "type": "uint256"
        },
        {
          "internalType": "address",
          "name": "user",
          "type": "address"
        }
      ],
      "stateMutability": "view",
      "type": "function"
    },
    {
      "inputs": [],
      "name": "owner",
      "outputs": [
        {
          "internalType": "address",
          "name": "",
          "type": "address"
        }
      ],
      "stateMutability": "view",
      "type": "function"
    },
    {
      "inputs": [
        {
          "internalType": "uint256",
          "name": "marketId",
          "type": "uint256"
        },
        {
          "internalType": "uint256",
          "name": "bidAmount",
          "type": "uint256"
        }
      ],
      "name": "placeBid",
      "outputs": [],
      "stateMutability": "payable",
      "type": "function"
    },
    {
      "inputs": [],
      "name": "platformFee",
      "outputs": [
        {
          "internalType": "uint256",
          "name": "",
          "type": "uint256"
        }
      ],
      "stateMutability": "view",
      "type": "function"
    },
    {
      "inputs": [],
      "name": "renounceOwnership",
      "outputs": [],
      "stateMutability": "nonpayable",
      "type": "function"
    },
    {
      "inputs": [],
      "name": "royaltyFee",
      "outputs": [
        {
          "internalType": "uint256",
          "name": "",
          "type": "uint256"
        }
      ],
      "stateMutability": "view",
      "type": "function"
    },
    {
      "inputs": [
        {
          "internalType": "address",
          "name": "",
          "type": "address"
        }
      ],
      "name": "supportedNFTContracts",
      "outputs": [
        {
          "internalType": "bool",
          "name": "",
          "type": "bool"
        }
      ],
      "stateMutability": "view",
      "type": "function"
    },
    {
      "inputs": [
        {
          "internalType": "address",
          "name": "newOwner",
          "type": "address"
        }
      ],
      "name": "transferOwnership",
      "outputs": [],
      "stateMutability": "nonpayable",
      "type": "function"
    },
    {
      "inputs": [
        {
          "internalType": "address",
          "name": "",
          "type": "address"
        },
        {
          "internalType": "uint256",
          "name": "",
          "type": "uint256"
        }
      ],
      "name": "userActivityLogs",
      "outputs": [
        {
          "internalType": "uint256",
          "name": "activityType",
          "type": "uint256"
        },
        {
          "internalType": "address",
          "name": "nftContract",
          "type": "address"
        },
        {
          "internalType": "uint256",
          "name": "tokenId",
          "type": "uint256"
        },
        {
          "internalType": "uint256",
          "name": "price",
          "type": "uint256"
        },
        {
          "internalType": "uint256",
          "name": "timestamp",
          "type": "uint256"
        },
        {
          "internalType": "uint256",
          "name": "marketId",
          "type": "uint256"
        },
        {
          "internalType": "address",
          "name": "user",
          "type": "address"
        }
      ],
      "stateMutability": "view",
      "type": "function"
    },
    {
      "inputs": [
        {
          "internalType": "address",
          "name": "",
          "type": "address"
        },
        {
          "internalType": "address",
          "name": "",
          "type": "address"
        },
        {
          "internalType": "uint256",
          "name": "",
          "type": "uint256"
        }
      ],
      "name": "userToMarketId",
      "outputs": [
        {
          "internalType": "uint256",
          "name": "",
          "type": "uint256"
        }
      ],
      "stateMutability": "view",
      "type": "function"
    },
    {
      "inputs": [],
      "name": "withdraw",
      "outputs": [],
      "stateMutability": "nonpayable",
      "type": "function"
    }
  ],
  "bytecode": "0x608060405260016003553480156200001657600080fd5b506040516200489d3803806200489d83398181016040528101906200003c9190620002d2565b83600073ffffffffffffffffffffffffffffffffffffffff168173ffffffffffffffffffffffffffffffffffffffff1603620000b25760006040517f1e4fbdf7000000000000000000000000000000000000000000000000000000008152600401620000a9919062000355565b60405180910390fd5b620000c3816200012460201b60201c565b5060018081905550826006819055508160078190555080600860006101000a81548173ffffffffffffffffffffffffffffffffffffffff021916908373ffffffffffffffffffffffffffffffffffffffff1602179055505050505062000372565b60008060009054906101000a900473ffffffffffffffffffffffffffffffffffffffff169050816000806101000a81548173ffffffffffffffffffffffffffffffffffffffff021916908373ffffffffffffffffffffffffffffffffffffffff1602179055508173ffffffffffffffffffffffffffffffffffffffff168173ffffffffffffffffffffffffffffffffffffffff167f8be0079c531659141344cd1fd0a4f28419497f9722a3daafe3b4186f6b6457e060405160405180910390a35050565b600080fd5b600073ffffffffffffffffffffffffffffffffffffffff82169050919050565b60006200021a82620001ed565b9050919050565b6200022c816200020d565b81146200023857600080fd5b50565b6000815190506200024c8162000221565b92915050565b6000819050919050565b620002678162000252565b81146200027357600080fd5b50565b60008151905062000287816200025c565b92915050565b60006200029a82620001ed565b9050919050565b620002ac816200028d565b8114620002b857600080fd5b50565b600081519050620002cc81620002a1565b92915050565b60008060008060808587031215620002ef57620002ee620001e8565b5b6000620002ff878288016200023b565b9450506020620003128782880162000276565b9350506040620003258782880162000276565b92505060606200033887828801620002bb565b91505092959194509250565b6200034f816200020d565b82525050565b60006020820190506200036c600083018462000344565b92915050565b61451b80620003826000396000f3fe6080604052600436106101815760003560e01c8063715018a6116100d1578063c7be7a491161008a578063ef29027d11610064578063ef29027d146105c8578063f20e5e351461060b578063f2fde38b1461064c578063fd439bb31461067557610181565b8063c7be7a4914610503578063ea3679a514610544578063ecbb65191461058557610181565b8063715018a6146103f3578063730a28f41461040a5780638997ea8d146104475780638da5cb5b14610484578063aaad2eab146104af578063b8997a97146104d857610181565b8063406ef2ef1161013e57806351f28e141161011857806351f28e141461031a57806357c90de51461035b5780635ef096b51461037757806364c1e71f146103b657610181565b8063406ef2ef146102a857806346904840146102d357806351ed8288146102fe57610181565b80630ae4c61f1461018657806326232a2e146101c35780632b1fd58a146101ee5780632d9b1f47146102175780633b03e2ee146102545780633ccfd60b14610291575b600080fd5b34801561019257600080fd5b506101ad60048036038101906101a89190613293565b61069e565b6040516101ba919061342e565b60405180910390f35b3480156101cf57600080fd5b506101d861082c565b6040516101e5919061345f565b60405180910390f35b3480156101fa57600080fd5b506102156004803603810190610210919061347a565b610832565b005b34801561022357600080fd5b5061023e600480360381019061023991906134a7565b610d90565b60405161024b919061345f565b60405180910390f35b34801561026057600080fd5b5061027b600480360381019061027691906134fa565b610dce565b604051610288919061342e565b60405180910390f35b34801561029d57600080fd5b506102a6610f4a565b005b3480156102b457600080fd5b506102bd611042565b6040516102ca919061345f565b60405180910390f35b3480156102df57600080fd5b506102e8611048565b6040516102f59190613548565b60405180910390f35b6103186004803603810190610313919061347a565b61106e565b005b34801561032657600080fd5b50610341600480360381019061033c919061347a565b61151b565b604051610352959493929190613572565b60405180910390f35b610375600480360381019061037091906135c5565b6115b1565b005b34801561038357600080fd5b5061039e600480360381019061039991906135c5565b6119f5565b6040516103ad93929190613605565b60405180910390f35b3480156103c257600080fd5b506103dd60048036038101906103d8919061347a565b611a5c565b6040516103ea919061373c565b60405180910390f35b3480156103ff57600080fd5b50610408611b7c565b005b34801561041657600080fd5b50610431600480360381019061042c91906134fa565b611b90565b60405161043e9190613779565b60405180910390f35b34801561045357600080fd5b5061046e600480360381019061046991906134fa565b611bb0565b60405161047b919061342e565b60405180910390f35b34801561049057600080fd5b50610499611f40565b6040516104a69190613794565b60405180910390f35b3480156104bb57600080fd5b506104d660048036038101906104d1919061347a565b611f69565b005b3480156104e457600080fd5b506104ed61221a565b6040516104fa919061345f565b60405180910390f35b34801561050f57600080fd5b5061052a6004803603810190610525919061347a565b612220565b60405161053b9594939291906137af565b60405180910390f35b34801561055057600080fd5b5061056b6004803603810190610566919061347a565b61230f565b60405161057c959493929190613802565b60405180910390f35b34801561059157600080fd5b506105ac60048036038101906105a79190613293565b612365565b6040516105bf9796959493929190613855565b60405180910390f35b3480156105d457600080fd5b506105ef60048036038101906105ea91906138c4565b612404565b6040516106029796959493929190613855565b60405180910390f35b34801561061757600080fd5b50610632600480360381019061062d919061347a565b6124b0565b604051610643959493929190613917565b60405180910390f35b34801561065857600080fd5b50610673600480360381019061066e91906134fa565b61255f565b005b34801561068157600080fd5b5061069c6004803603810190610697919061396a565b6125e5565b005b6060600960008473ffffffffffffffffffffffffffffffffffffffff1673ffffffffffffffffffffffffffffffffffffffff1681526020019081526020016000206000838152602001908152602001600020805480602002602001604051908101604052809291908181526020016000905b8282101561082057838290600052602060002090600702016040518060e0016040529081600082015481526020016001820160009054906101000a900473ffffffffffffffffffffffffffffffffffffffff1673ffffffffffffffffffffffffffffffffffffffff1673ffffffffffffffffffffffffffffffffffffffff168152602001600282015481526020016003820154815260200160048201548152602001600582015481526020016006820160009054906101000a900473ffffffffffffffffffffffffffffffffffffffff1673ffffffffffffffffffffffffffffffffffffffff1673ffffffffffffffffffffffffffffffffffffffff168152505081526020019060010190610710565b50505050905092915050565b60075481565b61083a612955565b6000600460008381526020019081526020016000206002015411610893576040517f08c379a000000000000000000000000000000000000000000000000000000000815260040161088a90613a54565b60405180910390fd5b600b60008281526020019081526020016000206000015442101580156108cf5750600b6000828152602001908152602001600020600101544211155b61090e576040517f08c379a000000000000000000000000000000000000000000000000000000000815260040161090590613ac0565b60405180910390fd5b60006004600083815260200190815260200160002090506000600b600084815260200190815260200160002090508160040160009054906101000a900473ffffffffffffffffffffffffffffffffffffffff1673ffffffffffffffffffffffffffffffffffffffff163373ffffffffffffffffffffffffffffffffffffffff16146109ce576040517f08c379a00000000000000000000000000000000000000000000000000000000081526004016109c590613b2c565b60405180910390fd5b6000816003015490506000610a0160646109f36006548561299b90919063ffffffff16565b6129b190919063ffffffff16565b90506000610a2d6064610a1f6007548661299b90919063ffffffff16565b6129b190919063ffffffff16565b90506000610a5682610a4885876129c790919063ffffffff16565b6129c790919063ffffffff16565b90508560030160009054906101000a900473ffffffffffffffffffffffffffffffffffffffff1673ffffffffffffffffffffffffffffffffffffffff166108fc849081150290604051600060405180830381858888f19350505050158015610ac2573d6000803e3d6000fd5b50600860009054906101000a900473ffffffffffffffffffffffffffffffffffffffff1673ffffffffffffffffffffffffffffffffffffffff166108fc839081150290604051600060405180830381858888f19350505050158015610b2b573d6000803e3d6000fd5b508560040160009054906101000a900473ffffffffffffffffffffffffffffffffffffffff1673ffffffffffffffffffffffffffffffffffffffff166108fc829081150290604051600060405180830381858888f19350505050158015610b96573d6000803e3d6000fd5b508560000160009054906101000a900473ffffffffffffffffffffffffffffffffffffffff1673ffffffffffffffffffffffffffffffffffffffff166323b872dd8760040160009054906101000a900473ffffffffffffffffffffffffffffffffffffffff168760040160009054906101000a900473ffffffffffffffffffffffffffffffffffffffff1689600101546040518463ffffffff1660e01b8152600401610c4493929190613bab565b600060405180830381600087803b158015610c5e57600080fd5b505af1158015610c72573d6000803e3d6000fd5b50505050610cab60008760000160009054906101000a900473ffffffffffffffffffffffffffffffffffffffff168860010154876129dd565b610ce18660000160009054906101000a900473ffffffffffffffffffffffffffffffffffffffff1687600101546000878b612b6d565b85600101548660000160009054906101000a900473ffffffffffffffffffffffffffffffffffffffff1673ffffffffffffffffffffffffffffffffffffffff16887f61f0edf4e29915f749df1dcfcc9138ae2b9bd305a87e5a7ea0c5ae2a4b7dba648860040160009054906101000a900473ffffffffffffffffffffffffffffffffffffffff1688604051610d77929190613be2565b60405180910390a4505050505050610d8d612d0e565b50565b60056020528260005260406000206020528160005260406000208181548110610db857600080fd5b9060005260206000200160009250925050505481565b6060600a60008373ffffffffffffffffffffffffffffffffffffffff1673ffffffffffffffffffffffffffffffffffffffff168152602001908152602001600020805480602002602001604051908101604052809291908181526020016000905b82821015610f3f57838290600052602060002090600702016040518060e0016040529081600082015481526020016001820160009054906101000a900473ffffffffffffffffffffffffffffffffffffffff1673ffffffffffffffffffffffffffffffffffffffff1673ffffffffffffffffffffffffffffffffffffffff168152602001600282015481526020016003820154815260200160048201548152602001600582015481526020016006820160009054906101000a900473ffffffffffffffffffffffffffffffffffffffff1673ffffffffffffffffffffffffffffffffffffffff1673ffffffffffffffffffffffffffffffffffffffff168152505081526020019060010190610e2f565b505050509050919050565b610f52612d17565b610f5a612955565b600047905060008111610fa2576040517f08c379a0000000000000000000000000000000000000000000000000000000008152600401610f9990613c57565b60405180910390fd5b3373ffffffffffffffffffffffffffffffffffffffff166108fc829081150290604051600060405180830381858888f19350505050158015610fe8573d6000803e3d6000fd5b503373ffffffffffffffffffffffffffffffffffffffff167f884edad9ce6fa2440d8a54cc123490eb96d2768479d49ff9c7366125a94243648260405161102f919061345f565b60405180910390a250611040612d0e565b565b60035481565b600860009054906101000a900473ffffffffffffffffffffffffffffffffffffffff1681565b611076612955565b60006004600083815260200190815260200160002060020154116110cf576040517f08c379a00000000000000000000000000000000000000000000000000000000081526004016110c690613a54565b60405180910390fd5b60006004600083815260200190815260200160002090506000600b600084815260200190815260200160002090508060010154421015611144576040517f08c379a000000000000000000000000000000000000000000000000000000000815260040161113b90613cc3565b60405180910390fd5b806003015434101561118b576040517f08c379a000000000000000000000000000000000000000000000000000000000815260040161118290613d55565b60405180910390fd5b60008160030154905060006111be60646111b06006548561299b90919063ffffffff16565b6129b190919063ffffffff16565b905060006111ea60646111dc6007548661299b90919063ffffffff16565b6129b190919063ffffffff16565b905060006112138261120585876129c790919063ffffffff16565b6129c790919063ffffffff16565b90508560030160009054906101000a900473ffffffffffffffffffffffffffffffffffffffff1673ffffffffffffffffffffffffffffffffffffffff166108fc849081150290604051600060405180830381858888f1935050505015801561127f573d6000803e3d6000fd5b50600860009054906101000a900473ffffffffffffffffffffffffffffffffffffffff1673ffffffffffffffffffffffffffffffffffffffff166108fc839081150290604051600060405180830381858888f193505050501580156112e8573d6000803e3d6000fd5b508560040160009054906101000a900473ffffffffffffffffffffffffffffffffffffffff1673ffffffffffffffffffffffffffffffffffffffff166108fc829081150290604051600060405180830381858888f19350505050158015611353573d6000803e3d6000fd5b508560000160009054906101000a900473ffffffffffffffffffffffffffffffffffffffff1673ffffffffffffffffffffffffffffffffffffffff166323b872dd8760040160009054906101000a900473ffffffffffffffffffffffffffffffffffffffff163389600101546040518463ffffffff1660e01b81526004016113dd93929190613d75565b600060405180830381600087803b1580156113f757600080fd5b505af115801561140b573d6000803e3d6000fd5b5050505061144460008760000160009054906101000a900473ffffffffffffffffffffffffffffffffffffffff168860010154876129dd565b61147a8660000160009054906101000a900473ffffffffffffffffffffffffffffffffffffffff1687600101546000878b612b6d565b3373ffffffffffffffffffffffffffffffffffffffff1686600101548760000160009054906101000a900473ffffffffffffffffffffffffffffffffffffffff1673ffffffffffffffffffffffffffffffffffffffff167f32fa9a011b812225bafd49b27549c4492d8afa49bb3707d4fcd967111d048ba38a88604051611502929190613dac565b60405180910390a4505050505050611518612d0e565b50565b60046020528060005260406000206000915090508060000160009054906101000a900473ffffffffffffffffffffffffffffffffffffffff16908060010154908060020154908060030160009054906101000a900473ffffffffffffffffffffffffffffffffffffffff16908060040160009054906101000a900473ffffffffffffffffffffffffffffffffffffffff16905085565b6115b9612955565b6000600460008481526020019081526020016000206002015411611612576040517f08c379a000000000000000000000000000000000000000000000000000000000815260040161160990613a54565b60405180910390fd5b6000600b6000848152602001908152602001600020905080600001544210158015611641575080600101544211155b611680576040517f08c379a000000000000000000000000000000000000000000000000000000000815260040161167790613ac0565b60405180910390fd5b806003015482116116c6576040517f08c379a00000000000000000000000000000000000000000000000000000000081526004016116bd90613e47565b60405180910390fd5b81341015611709576040517f08c379a000000000000000000000000000000000000000000000000000000000815260040161170090613eb3565b60405180910390fd5b600073ffffffffffffffffffffffffffffffffffffffff168160040160009054906101000a900473ffffffffffffffffffffffffffffffffffffffff1673ffffffffffffffffffffffffffffffffffffffff16146117d1578060040160009054906101000a900473ffffffffffffffffffffffffffffffffffffffff1673ffffffffffffffffffffffffffffffffffffffff166108fc82600301549081150290604051600060405180830381858888f193505050501580156117cf573d6000803e3d6000fd5b505b818160030181905550338160040160006101000a81548173ffffffffffffffffffffffffffffffffffffffff021916908373ffffffffffffffffffffffffffffffffffffffff160217905550600c600084815260200190815260200160002060405180606001604052803373ffffffffffffffffffffffffffffffffffffffff16815260200184815260200142815250908060018154018082558091505060019003906000526020600020906003020160009091909190915060008201518160000160006101000a81548173ffffffffffffffffffffffffffffffffffffffff021916908373ffffffffffffffffffffffffffffffffffffffff1602179055506020820151816001015560408201518160020155505061193f600480600086815260200190815260200160002060000160009054906101000a900473ffffffffffffffffffffffffffffffffffffffff166004600087815260200190815260200160002060010154856129dd565b6119996004600085815260200190815260200160002060000160009054906101000a900473ffffffffffffffffffffffffffffffffffffffff16600460008681526020019081526020016000206001015460048587612b6d565b3373ffffffffffffffffffffffffffffffffffffffff16837f0e54eff26401bf69b81b26f60bd85ef47f5d85275c1d268d84f68d6897431c47846040516119e0919061345f565b60405180910390a3506119f1612d0e565b5050565b600c6020528160005260406000208181548110611a1157600080fd5b9060005260206000209060030201600091509150508060000160009054906101000a900473ffffffffffffffffffffffffffffffffffffffff16908060010154908060020154905083565b60606003548210611aa2576040517f08c379a0000000000000000000000000000000000000000000000000000000008152600401611a9990613f1f565b60405180910390fd5b600c6000838152602001908152602001600020805480602002602001604051908101604052809291908181526020016000905b82821015611b7157838290600052602060002090600302016040518060600160405290816000820160009054906101000a900473ffffffffffffffffffffffffffffffffffffffff1673ffffffffffffffffffffffffffffffffffffffff1673ffffffffffffffffffffffffffffffffffffffff1681526020016001820154815260200160028201548152505081526020019060010190611ad5565b505050509050919050565b611b84612d17565b611b8e6000612d9e565b565b60026020528060005260406000206000915054906101000a900460ff1681565b6060600080600190505b600354811015611ca45760006004600083815260200190815260200160002090508473ffffffffffffffffffffffffffffffffffffffff168160000160009054906101000a900473ffffffffffffffffffffffffffffffffffffffff1673ffffffffffffffffffffffffffffffffffffffff1603611c9857600960008673ffffffffffffffffffffffffffffffffffffffff1673ffffffffffffffffffffffffffffffffffffffff1681526020019081526020016000206000826001015481526020019081526020016000208054905083611c959190613f6e565b92505b50806001019050611bba565b5060008167ffffffffffffffff811115611cc157611cc0613fa2565b5b604051908082528060200260200182016040528015611cfa57816020015b611ce761311f565b815260200190600190039081611cdf5790505b509050600080600190505b600354811015611f345760006004600083815260200190815260200160002090508673ffffffffffffffffffffffffffffffffffffffff168160000160009054906101000a900473ffffffffffffffffffffffffffffffffffffffff1673ffffffffffffffffffffffffffffffffffffffff1603611f28576000600960008973ffffffffffffffffffffffffffffffffffffffff1673ffffffffffffffffffffffffffffffffffffffff168152602001908152602001600020600083600101548152602001908152602001600020905060005b8180549050811015611f2557818181548110611df757611df6613fd1565b5b90600052602060002090600702016040518060e0016040529081600082015481526020016001820160009054906101000a900473ffffffffffffffffffffffffffffffffffffffff1673ffffffffffffffffffffffffffffffffffffffff1673ffffffffffffffffffffffffffffffffffffffff168152602001600282015481526020016003820154815260200160048201548152602001600582015481526020016006820160009054906101000a900473ffffffffffffffffffffffffffffffffffffffff1673ffffffffffffffffffffffffffffffffffffffff1673ffffffffffffffffffffffffffffffffffffffff1681525050868681518110611f0157611f00613fd1565b5b60200260200101819052508480611f1790614000565b955050806001019050611dd8565b50505b50806001019050611d05565b50819350505050919050565b60008060009054906101000a900473ffffffffffffffffffffffffffffffffffffffff16905090565b3373ffffffffffffffffffffffffffffffffffffffff166004600083815260200190815260200160002060040160009054906101000a900473ffffffffffffffffffffffffffffffffffffffff1673ffffffffffffffffffffffffffffffffffffffff161461200d576040517f08c379a0000000000000000000000000000000000000000000000000000000008152600401612004906140ba565b60405180910390fd5b60006004600083815260200190815260200160002090508060000160009054906101000a900473ffffffffffffffffffffffffffffffffffffffff1673ffffffffffffffffffffffffffffffffffffffff1663a22cb4653060006040518363ffffffff1660e01b81526004016120849291906140da565b600060405180830381600087803b15801561209e57600080fd5b505af11580156120b2573d6000803e3d6000fd5b505050506120ec60038260000160009054906101000a900473ffffffffffffffffffffffffffffffffffffffff16836001015460006129dd565b6121238160000160009054906101000a900473ffffffffffffffffffffffffffffffffffffffff1682600101546003600086612b6d565b600b60008381526020019081526020016000206000808201600090556001820160009055600282016000905560038201600090556004820160006101000a81549073ffffffffffffffffffffffffffffffffffffffff02191690555050600c6000838152602001908152602001600020600061219f9190613188565b80600101548160000160009054906101000a900473ffffffffffffffffffffffffffffffffffffffff1673ffffffffffffffffffffffffffffffffffffffff167f92c6a11a10a02c35b707769896b61a266c0111f6576a38b86edd71ad02ba0b618460405161220e919061345f565b60405180910390a35050565b60065481565b6000806000806000806004600088815260200190815260200160002090506003548710612282576040517f08c379a000000000000000000000000000000000000000000000000000000000815260040161227990613f1f565b60405180910390fd5b8060000160009054906101000a900473ffffffffffffffffffffffffffffffffffffffff16816001015482600201548360030160009054906101000a900473ffffffffffffffffffffffffffffffffffffffff168460040160009054906101000a900473ffffffffffffffffffffffffffffffffffffffff16955095509550955095505091939590929450565b600b6020528060005260406000206000915090508060000154908060010154908060020154908060030154908060040160009054906101000a900473ffffffffffffffffffffffffffffffffffffffff16905085565b600a602052816000526040600020818154811061238157600080fd5b9060005260206000209060070201600091509150508060000154908060010160009054906101000a900473ffffffffffffffffffffffffffffffffffffffff16908060020154908060030154908060040154908060050154908060060160009054906101000a900473ffffffffffffffffffffffffffffffffffffffff16905087565b6009602052826000526040600020602052816000526040600020818154811061242c57600080fd5b906000526020600020906007020160009250925050508060000154908060010160009054906101000a900473ffffffffffffffffffffffffffffffffffffffff16908060020154908060030154908060040154908060050154908060060160009054906101000a900473ffffffffffffffffffffffffffffffffffffffff16905087565b600080600080600080600b600088815260200190815260200160002090506003548710612512576040517f08c379a000000000000000000000000000000000000000000000000000000000815260040161250990613f1f565b60405180910390fd5b80600001548160010154826002015483600301548460040160009054906101000a900473ffffffffffffffffffffffffffffffffffffffff16955095509550955095505091939590929450565b612567612d17565b600073ffffffffffffffffffffffffffffffffffffffff168173ffffffffffffffffffffffffffffffffffffffff16036125d95760006040517f1e4fbdf70000000000000000000000000000000000000000000000000000000081526004016125d09190613794565b60405180910390fd5b6125e281612d9e565b50565b3373ffffffffffffffffffffffffffffffffffffffff168673ffffffffffffffffffffffffffffffffffffffff16636352211e876040518263ffffffff1660e01b8152600401612635919061345f565b602060405180830381865afa158015612652573d6000803e3d6000fd5b505050506040513d601f19601f820116820180604052508101906126769190614118565b73ffffffffffffffffffffffffffffffffffffffff16146126cc576040517f08c379a00000000000000000000000000000000000000000000000000000000081526004016126c3906141b7565b60405180910390fd5b8573ffffffffffffffffffffffffffffffffffffffff1663e985e9c533306040518363ffffffff1660e01b81526004016127079291906141d7565b602060405180830381865afa158015612724573d6000803e3d6000fd5b505050506040513d601f19601f82011682018060405250810190612748919061422c565b612787576040517f08c379a000000000000000000000000000000000000000000000000000000000815260040161277e906142cb565b60405180910390fd5b8282116127c9576040517f08c379a00000000000000000000000000000000000000000000000000000000081526004016127c09061435d565b60405180910390fd5b8381101561280c576040517f08c379a0000000000000000000000000000000000000000000000000000000008152600401612803906143ef565b60405180910390fd5b600061281a87878733612e62565b90506040518060a0016040528085815260200184815260200183815260200160008152602001600073ffffffffffffffffffffffffffffffffffffffff16815250600b60008381526020019081526020016000206000820151816000015560208201518160010155604082015181600201556060820151816003015560808201518160040160006101000a81548173ffffffffffffffffffffffffffffffffffffffff021916908373ffffffffffffffffffffffffffffffffffffffff1602179055509050506128ed60028888886129dd565b6128fb878760028885612b6d565b858773ffffffffffffffffffffffffffffffffffffffff167f36e94395fafcb0d2a9bcfcdd5cef807ab52a1f4382906992ebdc18de5f1472c48388604051612944929190613dac565b60405180910390a350505050505050565b600260015403612991576040517f3ee5aeb500000000000000000000000000000000000000000000000000000000815260040160405180910390fd5b6002600181905550565b600081836129a9919061440f565b905092915050565b600081836129bf9190614480565b905092915050565b600081836129d591906144b1565b905092915050565b600a60003373ffffffffffffffffffffffffffffffffffffffff1673ffffffffffffffffffffffffffffffffffffffff1681526020019081526020016000206040518060e001604052808681526020018573ffffffffffffffffffffffffffffffffffffffff168152602001848152602001838152602001428152602001600081526020013373ffffffffffffffffffffffffffffffffffffffff1681525090806001815401808255809150506001900390600052602060002090600702016000909190919091506000820151816000015560208201518160010160006101000a81548173ffffffffffffffffffffffffffffffffffffffff021916908373ffffffffffffffffffffffffffffffffffffffff16021790555060408201518160020155606082015181600301556080820151816004015560a0820151816005015560c08201518160060160006101000a81548173ffffffffffffffffffffffffffffffffffffffff021916908373ffffffffffffffffffffffffffffffffffffffff160217905550505050505050565b600960008673ffffffffffffffffffffffffffffffffffffffff1673ffffffffffffffffffffffffffffffffffffffff16815260200190815260200160002060008581526020019081526020016000206040518060e001604052808581526020018773ffffffffffffffffffffffffffffffffffffffff1681526020018681526020018481526020014281526020018381526020013373ffffffffffffffffffffffffffffffffffffffff1681525090806001815401808255809150506001900390600052602060002090600702016000909190919091506000820151816000015560208201518160010160006101000a81548173ffffffffffffffffffffffffffffffffffffffff021916908373ffffffffffffffffffffffffffffffffffffffff16021790555060408201518160020155606082015181600301556080820151816004015560a0820151816005015560c08201518160060160006101000a81548173ffffffffffffffffffffffffffffffffffffffff021916908373ffffffffffffffffffffffffffffffffffffffff16021790555050505050505050565b60018081905550565b612d1f613117565b73ffffffffffffffffffffffffffffffffffffffff16612d3d611f40565b73ffffffffffffffffffffffffffffffffffffffff1614612d9c57612d60613117565b6040517f118cdaa7000000000000000000000000000000000000000000000000000000008152600401612d939190613794565b60405180910390fd5b565b60008060009054906101000a900473ffffffffffffffffffffffffffffffffffffffff169050816000806101000a81548173ffffffffffffffffffffffffffffffffffffffff021916908373ffffffffffffffffffffffffffffffffffffffff1602179055508173ffffffffffffffffffffffffffffffffffffffff168173ffffffffffffffffffffffffffffffffffffffff167f8be0079c531659141344cd1fd0a4f28419497f9722a3daafe3b4186f6b6457e060405160405180910390a35050565b6000600560008373ffffffffffffffffffffffffffffffffffffffff1673ffffffffffffffffffffffffffffffffffffffff16815260200190815260200160002060008673ffffffffffffffffffffffffffffffffffffffff1673ffffffffffffffffffffffffffffffffffffffff16815260200190815260200160002060035490806001815401808255809150506001900390600052602060002001600090919091909150556040518060a001604052808673ffffffffffffffffffffffffffffffffffffffff1681526020018581526020018481526020018673ffffffffffffffffffffffffffffffffffffffff16636352211e876040518263ffffffff1660e01b8152600401612f75919061345f565b602060405180830381865afa158015612f92573d6000803e3d6000fd5b505050506040513d601f19601f82011682018060405250810190612fb69190614118565b73ffffffffffffffffffffffffffffffffffffffff1681526020018373ffffffffffffffffffffffffffffffffffffffff1681525060046000600354815260200190815260200160002060008201518160000160006101000a81548173ffffffffffffffffffffffffffffffffffffffff021916908373ffffffffffffffffffffffffffffffffffffffff160217905550602082015181600101556040820151816002015560608201518160030160006101000a81548173ffffffffffffffffffffffffffffffffffffffff021916908373ffffffffffffffffffffffffffffffffffffffff16021790555060808201518160040160006101000a81548173ffffffffffffffffffffffffffffffffffffffff021916908373ffffffffffffffffffffffffffffffffffffffff160217905550905050600060035490506003600081548092919061310690614000565b919050555080915050949350505050565b600033905090565b6040518060e0016040528060008152602001600073ffffffffffffffffffffffffffffffffffffffff16815260200160008152602001600081526020016000815260200160008152602001600073ffffffffffffffffffffffffffffffffffffffff1681525090565b50805460008255600302906000526020600020908101906131a991906131ac565b50565b5b808211156131f657600080820160006101000a81549073ffffffffffffffffffffffffffffffffffffffff021916905560018201600090556002820160009055506003016131ad565b5090565b600080fd5b600073ffffffffffffffffffffffffffffffffffffffff82169050919050565b600061322a826131ff565b9050919050565b61323a8161321f565b811461324557600080fd5b50565b60008135905061325781613231565b92915050565b6000819050919050565b6132708161325d565b811461327b57600080fd5b50565b60008135905061328d81613267565b92915050565b600080604083850312156132aa576132a96131fa565b5b60006132b885828601613248565b92505060206132c98582860161327e565b9150509250929050565b600081519050919050565b600082825260208201905092915050565b6000819050602082019050919050565b6133088161325d565b82525050565b6133178161321f565b82525050565b60e08201600082015161333360008501826132ff565b506020820151613346602085018261330e565b50604082015161335960408501826132ff565b50606082015161336c60608501826132ff565b50608082015161337f60808501826132ff565b5060a082015161339260a08501826132ff565b5060c08201516133a560c085018261330e565b50505050565b60006133b7838361331d565b60e08301905092915050565b6000602082019050919050565b60006133db826132d3565b6133e581856132de565b93506133f0836132ef565b8060005b8381101561342157815161340888826133ab565b9750613413836133c3565b9250506001810190506133f4565b5085935050505092915050565b6000602082019050818103600083015261344881846133d0565b905092915050565b6134598161325d565b82525050565b60006020820190506134746000830184613450565b92915050565b6000602082840312156134905761348f6131fa565b5b600061349e8482850161327e565b91505092915050565b6000806000606084860312156134c0576134bf6131fa565b5b60006134ce86828701613248565b93505060206134df86828701613248565b92505060406134f08682870161327e565b9150509250925092565b6000602082840312156135105761350f6131fa565b5b600061351e84828501613248565b91505092915050565b6000613532826131ff565b9050919050565b61354281613527565b82525050565b600060208201905061355d6000830184613539565b92915050565b61356c8161321f565b82525050565b600060a0820190506135876000830188613563565b6135946020830187613450565b6135a16040830186613450565b6135ae6060830185613539565b6135bb6080830184613539565b9695505050505050565b600080604083850312156135dc576135db6131fa565b5b60006135ea8582860161327e565b92505060206135fb8582860161327e565b9150509250929050565b600060608201905061361a6000830186613539565b6136276020830185613450565b6136346040830184613450565b949350505050565b600081519050919050565b600082825260208201905092915050565b6000819050602082019050919050565b61367181613527565b82525050565b60608201600082015161368d6000850182613668565b5060208201516136a060208501826132ff565b5060408201516136b360408501826132ff565b50505050565b60006136c58383613677565b60608301905092915050565b6000602082019050919050565b60006136e98261363c565b6136f38185613647565b93506136fe83613658565b8060005b8381101561372f57815161371688826136b9565b9750613721836136d1565b925050600181019050613702565b5085935050505092915050565b6000602082019050818103600083015261375681846136de565b905092915050565b60008115159050919050565b6137738161375e565b82525050565b600060208201905061378e600083018461376a565b92915050565b60006020820190506137a96000830184613563565b92915050565b600060a0820190506137c46000830188613563565b6137d16020830187613450565b6137de6040830186613450565b6137eb6060830185613563565b6137f86080830184613563565b9695505050505050565b600060a0820190506138176000830188613450565b6138246020830187613450565b6138316040830186613450565b61383e6060830185613450565b61384b6080830184613539565b9695505050505050565b600060e08201905061386a600083018a613450565b6138776020830189613563565b6138846040830188613450565b6138916060830187613450565b61389e6080830186613450565b6138ab60a0830185613450565b6138b860c0830184613563565b98975050505050505050565b6000806000606084860312156138dd576138dc6131fa565b5b60006138eb86828701613248565b93505060206138fc8682870161327e565b925050604061390d8682870161327e565b9150509250925092565b600060a08201905061392c6000830188613450565b6139396020830187613450565b6139466040830186613450565b6139536060830185613450565b6139606080830184613563565b9695505050505050565b60008060008060008060c08789031215613987576139866131fa565b5b600061399589828a01613248565b96505060206139a689828a0161327e565b95505060406139b789828a0161327e565b94505060606139c889828a0161327e565b93505060806139d989828a0161327e565b92505060a06139ea89828a0161327e565b9150509295509295509295565b600082825260208201905092915050565b7f4e4654206973206e6f7420666f722073616c6500000000000000000000000000600082015250565b6000613a3e6013836139f7565b9150613a4982613a08565b602082019050919050565b60006020820190508181036000830152613a6d81613a31565b9050919050565b7f41756374696f6e206973206e6f74206163746976650000000000000000000000600082015250565b6000613aaa6015836139f7565b9150613ab582613a74565b602082019050919050565b60006020820190508181036000830152613ad981613a9d565b9050919050565b7f4f6e6c79207468652073656c6c65722063616e20616363657074206120626964600082015250565b6000613b166020836139f7565b9150613b2182613ae0565b602082019050919050565b60006020820190508181036000830152613b4581613b09565b9050919050565b6000819050919050565b6000613b71613b6c613b67846131ff565b613b4c565b6131ff565b9050919050565b6000613b8382613b56565b9050919050565b6000613b9582613b78565b9050919050565b613ba581613b8a565b82525050565b6000606082019050613bc06000830186613b9c565b613bcd6020830185613b9c565b613bda6040830184613450565b949350505050565b6000604082019050613bf76000830185613b9c565b613c046020830184613450565b9392505050565b7f4e6f2062616c616e636520746f20776974686472617700000000000000000000600082015250565b6000613c416016836139f7565b9150613c4c82613c0b565b602082019050919050565b60006020820190508181036000830152613c7081613c34565b9050919050565b7f41756374696f6e206973207374696c6c20616374697665000000000000000000600082015250565b6000613cad6017836139f7565b9150613cb882613c77565b602082019050919050565b60006020820190508181036000830152613cdc81613ca0565b9050919050565b7f42696420616d6f756e74206d7573742062652067726561746572207468616e2060008201527f6f7220657175616c20746f207468652068696768657374206269640000000000602082015250565b6000613d3f603b836139f7565b9150613d4a82613ce3565b604082019050919050565b60006020820190508181036000830152613d6e81613d32565b9050919050565b6000606082019050613d8a6000830186613b9c565b613d976020830185613563565b613da46040830184613450565b949350505050565b6000604082019050613dc16000830185613450565b613dce6020830184613450565b9392505050565b7f42696420616d6f756e74206d75737420626520686967686572207468616e207460008201527f68652063757272656e7420686967686573742062696400000000000000000000602082015250565b6000613e316036836139f7565b9150613e3c82613dd5565b604082019050919050565b60006020820190508181036000830152613e6081613e24565b9050919050565b7f496e73756666696369656e742066756e64730000000000000000000000000000600082015250565b6000613e9d6012836139f7565b9150613ea882613e67565b602082019050919050565b60006020820190508181036000830152613ecc81613e90565b9050919050565b7f496e76616c6964206d61726b6574204944000000000000000000000000000000600082015250565b6000613f096011836139f7565b9150613f1482613ed3565b602082019050919050565b60006020820190508181036000830152613f3881613efc565b9050919050565b7f4e487b7100000000000000000000000000000000000000000000000000000000600052601160045260246000fd5b6000613f798261325d565b9150613f848361325d565b9250828201905080821115613f9c57613f9b613f3f565b5b92915050565b7f4e487b7100000000000000000000000000000000000000000000000000000000600052604160045260246000fd5b7f4e487b7100000000000000000000000000000000000000000000000000000000600052603260045260246000fd5b600061400b8261325d565b91507fffffffffffffffffffffffffffffffffffffffffffffffffffffffffffffffff820361403d5761403c613f3f565b5b600182019050919050565b7f4f6e6c79207468652073656c6c65722063616e2063616e63656c20746865206c60008201527f697374696e670000000000000000000000000000000000000000000000000000602082015250565b60006140a46026836139f7565b91506140af82614048565b604082019050919050565b600060208201905081810360008301526140d381614097565b9050919050565b60006040820190506140ef6000830185613563565b6140fc602083018461376a565b9392505050565b60008151905061411281613231565b92915050565b60006020828403121561412e5761412d6131fa565b5b600061413c84828501614103565b91505092915050565b7f596f7520617265206e6f7420746865206f776e6572206f662074686973204e4660008201527f5400000000000000000000000000000000000000000000000000000000000000602082015250565b60006141a16021836139f7565b91506141ac82614145565b604082019050919050565b600060208201905081810360008301526141d081614194565b9050919050565b60006040820190506141ec6000830185613563565b6141f96020830184613563565b9392505050565b6142098161375e565b811461421457600080fd5b50565b60008151905061422681614200565b92915050565b600060208284031215614242576142416131fa565b5b600061425084828501614217565b91505092915050565b7f436f6e7472616374206973206e6f7420617070726f76656420746f207472616e60008201527f7366657220796f7572204e465400000000000000000000000000000000000000602082015250565b60006142b5602d836139f7565b91506142c082614259565b604082019050919050565b600060208201905081810360008301526142e4816142a8565b9050919050565b7f456e642074696d65206d7573742062652061667465722073746172742074696d60008201527f6500000000000000000000000000000000000000000000000000000000000000602082015250565b60006143476021836139f7565b9150614352826142eb565b604082019050919050565b600060208201905081810360008301526143768161433a565b9050919050565b7f52657365727665207072696365206d757374206265206772656174657220746860008201527f616e206f7220657175616c20746f207468652070726963650000000000000000602082015250565b60006143d96038836139f7565b91506143e48261437d565b604082019050919050565b60006020820190508181036000830152614408816143cc565b9050919050565b600061441a8261325d565b91506144258361325d565b92508282026144338161325d565b9150828204841483151761444a57614449613f3f565b5b5092915050565b7f4e487b7100000000000000000000000000000000000000000000000000000000600052601260045260246000fd5b600061448b8261325d565b91506144968361325d565b9250826144a6576144a5614451565b5b828204905092915050565b60006144bc8261325d565b91506144c78361325d565b92508282039050818111156144df576144de613f3f565b5b9291505056fea264697066735822122090d1429b424bee18e9def82bd477229c8485538f1d34dc124c2343baea5a2fb264736f6c63430008180033",
  "linkReferences": {},
  "deployedLinkReferences": {}
}