{
  "_format": "hh-sol-artifact-1",
  "contractName": "NFTMarketplace",
  "sourceName": "contracts/NFTMarketplace.sol",
  "address": "0x05Fa02e2d02b8Dc93D0FC05e535Be4eFAbBfcF8F",
  "abi": [
    {
      "inputs": [
        {
          "internalType": "address",
          "name": "initialOwner",
          "type": "address"
        },
        {
          "internalType": "uint256",
          "name": "_royaltyFee",
          "type": "uint256"
        },
        {
          "internalType": "uint256",
          "name": "_platformFee",
          "type": "uint256"
        },
        {
          "internalType": "address payable",
          "name": "_feeRecipient",
          "type": "address"
        }
      ],
      "stateMutability": "nonpayable",
      "type": "constructor"
    },
    {
      "inputs": [
        {
          "internalType": "address",
          "name": "owner",
          "type": "address"
        }
      ],
      "name": "OwnableInvalidOwner",
      "type": "error"
    },
    {
      "inputs": [
        {
          "internalType": "address",
          "name": "account",
          "type": "address"
        }
      ],
      "name": "OwnableUnauthorizedAccount",
      "type": "error"
    },
    {
      "inputs": [],
      "name": "ReentrancyGuardReentrantCall",
      "type": "error"
    },
    {
      "anonymous": false,
      "inputs": [
        {
          "indexed": true,
          "internalType": "uint256",
          "name": "marketId",
          "type": "uint256"
        },
        {
          "indexed": true,
          "internalType": "address",
          "name": "nftContract",
          "type": "address"
        },
        {
          "indexed": true,
          "internalType": "uint256",
          "name": "tokenId",
          "type": "uint256"
        },
        {
          "indexed": false,
          "internalType": "address",
          "name": "buyer",
          "type": "address"
        },
        {
          "indexed": false,
          "internalType": "uint256",
          "name": "price",
          "type": "uint256"
        }
      ],
      "name": "BidAccepted",
      "type": "event"
    },
    {
      "anonymous": false,
      "inputs": [
        {
          "indexed": true,
          "internalType": "uint256",
          "name": "marketId",
          "type": "uint256"
        },
        {
          "indexed": true,
          "internalType": "address",
          "name": "bidder",
          "type": "address"
        },
        {
          "indexed": false,
          "internalType": "uint256",
          "name": "amount",
          "type": "uint256"
        }
      ],
      "name": "BidPlaced",
      "type": "event"
    },
    {
      "anonymous": false,
      "inputs": [
        {
          "indexed": false,
          "internalType": "uint256",
          "name": "marketId",
          "type": "uint256"
        },
        {
          "indexed": true,
          "internalType": "address",
          "name": "nftContract",
          "type": "address"
        },
        {
          "indexed": true,
          "internalType": "uint256",
          "name": "tokenId",
          "type": "uint256"
        }
      ],
      "name": "NFTCancelled",
      "type": "event"
    },
    {
      "anonymous": false,
      "inputs": [
        {
          "indexed": false,
          "internalType": "uint256",
          "name": "marketId",
          "type": "uint256"
        },
        {
          "indexed": true,
          "internalType": "address",
          "name": "nftContract",
          "type": "address"
        },
        {
          "indexed": true,
          "internalType": "uint256",
          "name": "tokenId",
          "type": "uint256"
        },
        {
          "indexed": false,
          "internalType": "uint256",
          "name": "price",
          "type": "uint256"
        }
      ],
      "name": "NFTListed",
      "type": "event"
    },
    {
      "anonymous": false,
      "inputs": [
        {
          "indexed": false,
          "internalType": "uint256",
          "name": "marketId",
          "type": "uint256"
        },
        {
          "indexed": true,
          "internalType": "address",
          "name": "nftContract",
          "type": "address"
        },
        {
          "indexed": true,
          "internalType": "uint256",
          "name": "tokenId",
          "type": "uint256"
        },
        {
          "indexed": true,
          "internalType": "address",
          "name": "buyer",
          "type": "address"
        },
        {
          "indexed": false,
          "internalType": "uint256",
          "name": "price",
          "type": "uint256"
        }
      ],
      "name": "NFTSold",
      "type": "event"
    },
    {
      "anonymous": false,
      "inputs": [
        {
          "indexed": true,
          "internalType": "address",
          "name": "previousOwner",
          "type": "address"
        },
        {
          "indexed": true,
          "internalType": "address",
          "name": "newOwner",
          "type": "address"
        }
      ],
      "name": "OwnershipTransferred",
      "type": "event"
    },
    {
      "anonymous": false,
      "inputs": [
        {
          "indexed": true,
          "internalType": "address",
          "name": "user",
          "type": "address"
        },
        {
          "indexed": false,
          "internalType": "uint256",
          "name": "amount",
          "type": "uint256"
        }
      ],
      "name": "Withdraw",
      "type": "event"
    },
    {
      "inputs": [
        {
          "internalType": "uint256",
          "name": "marketId",
          "type": "uint256"
        }
      ],
      "name": "acceptBid",
      "outputs": [],
      "stateMutability": "nonpayable",
      "type": "function"
    },
    {
      "inputs": [
        {
          "internalType": "uint256",
          "name": "marketId",
          "type": "uint256"
        }
      ],
      "name": "buyNFT",
      "outputs": [],
      "stateMutability": "payable",
      "type": "function"
    },
    {
      "inputs": [
        {
          "internalType": "uint256",
          "name": "marketId",
          "type": "uint256"
        }
      ],
      "name": "cancelNFTListing",
      "outputs": [],
      "stateMutability": "nonpayable",
      "type": "function"
    },
    {
      "inputs": [],
      "name": "feeRecipient",
      "outputs": [
        {
          "internalType": "address payable",
          "name": "",
          "type": "address"
        }
      ],
      "stateMutability": "view",
      "type": "function"
    },
    {
      "inputs": [
        {
          "internalType": "address",
          "name": "nftContract",
          "type": "address"
        }
      ],
      "name": "getAllActivitiesForCollection",
      "outputs": [
        {
          "components": [
            {
              "internalType": "uint256",
              "name": "activityType",
              "type": "uint256"
            },
            {
              "internalType": "address",
              "name": "nftContract",
              "type": "address"
            },
            {
              "internalType": "uint256",
              "name": "tokenId",
              "type": "uint256"
            },
            {
              "internalType": "uint256",
              "name": "price",
              "type": "uint256"
            },
            {
              "internalType": "uint256",
              "name": "timestamp",
              "type": "uint256"
            },
            {
              "internalType": "uint256",
              "name": "marketId",
              "type": "uint256"
            },
            {
              "internalType": "address",
              "name": "user",
              "type": "address"
            }
          ],
          "internalType": "struct NFTMarketplace.ActivityLog[]",
          "name": "",
          "type": "tuple[]"
        }
      ],
      "stateMutability": "view",
      "type": "function"
    },
    {
      "inputs": [
        {
          "internalType": "uint256",
          "name": "marketId",
          "type": "uint256"
        }
      ],
      "name": "getAuctionDetails",
      "outputs": [
        {
          "internalType": "uint256",
          "name": "reservePrice",
          "type": "uint256"
        },
        {
          "internalType": "uint256",
          "name": "highestBid",
          "type": "uint256"
        },
        {
          "internalType": "address",
          "name": "highestBidder",
          "type": "address"
        }
      ],
      "stateMutability": "view",
      "type": "function"
    },
    {
      "inputs": [
        {
          "internalType": "uint256",
          "name": "marketId",
          "type": "uint256"
        }
      ],
      "name": "getBidsForMarketItem",
      "outputs": [
        {
          "components": [
            {
              "internalType": "address payable",
              "name": "bidder",
              "type": "address"
            },
            {
              "internalType": "uint256",
              "name": "amount",
              "type": "uint256"
            },
            {
              "internalType": "uint256",
              "name": "timestamp",
              "type": "uint256"
            }
          ],
          "internalType": "struct NFTMarketplace.Bid[]",
          "name": "",
          "type": "tuple[]"
        }
      ],
      "stateMutability": "view",
      "type": "function"
    },
    {
      "inputs": [
        {
          "internalType": "uint256",
          "name": "marketId",
          "type": "uint256"
        }
      ],
      "name": "getMarketItem",
      "outputs": [
        {
          "internalType": "address",
          "name": "nftContract",
          "type": "address"
        },
        {
          "internalType": "uint256",
          "name": "tokenId",
          "type": "uint256"
        },
        {
          "internalType": "uint256",
          "name": "price",
          "type": "uint256"
        },
        {
          "internalType": "address",
          "name": "creator",
          "type": "address"
        },
        {
          "internalType": "address",
          "name": "seller",
          "type": "address"
        }
      ],
      "stateMutability": "view",
      "type": "function"
    },
    {
      "inputs": [
        {
          "internalType": "address",
          "name": "nftContract",
          "type": "address"
        },
        {
          "internalType": "uint256",
          "name": "tokenId",
          "type": "uint256"
        }
      ],
      "name": "getNFTActivityLog",
      "outputs": [
        {
          "components": [
            {
              "internalType": "uint256",
              "name": "activityType",
              "type": "uint256"
            },
            {
              "internalType": "address",
              "name": "nftContract",
              "type": "address"
            },
            {
              "internalType": "uint256",
              "name": "tokenId",
              "type": "uint256"
            },
            {
              "internalType": "uint256",
              "name": "price",
              "type": "uint256"
            },
            {
              "internalType": "uint256",
              "name": "timestamp",
              "type": "uint256"
            },
            {
              "internalType": "uint256",
              "name": "marketId",
              "type": "uint256"
            },
            {
              "internalType": "address",
              "name": "user",
              "type": "address"
            }
          ],
          "internalType": "struct NFTMarketplace.ActivityLog[]",
          "name": "",
          "type": "tuple[]"
        }
      ],
      "stateMutability": "view",
      "type": "function"
    },
    {
      "inputs": [
        {
          "internalType": "address",
          "name": "user",
          "type": "address"
        }
      ],
      "name": "getUserActivityLog",
      "outputs": [
        {
          "components": [
            {
              "internalType": "uint256",
              "name": "activityType",
              "type": "uint256"
            },
            {
              "internalType": "address",
              "name": "nftContract",
              "type": "address"
            },
            {
              "internalType": "uint256",
              "name": "tokenId",
              "type": "uint256"
            },
            {
              "internalType": "uint256",
              "name": "price",
              "type": "uint256"
            },
            {
              "internalType": "uint256",
              "name": "timestamp",
              "type": "uint256"
            },
            {
              "internalType": "uint256",
              "name": "marketId",
              "type": "uint256"
            },
            {
              "internalType": "address",
              "name": "user",
              "type": "address"
            }
          ],
          "internalType": "struct NFTMarketplace.ActivityLog[]",
          "name": "",
          "type": "tuple[]"
        }
      ],
      "stateMutability": "view",
      "type": "function"
    },
    {
      "inputs": [
        {
          "internalType": "address",
          "name": "nftContract",
          "type": "address"
        },
        {
          "internalType": "uint256",
          "name": "tokenId",
          "type": "uint256"
        }
      ],
      "name": "isNFTListed",
      "outputs": [
        {
          "internalType": "bool",
          "name": "",
          "type": "bool"
        }
      ],
      "stateMutability": "view",
      "type": "function"
    },
    {
      "inputs": [
        {
          "internalType": "address",
          "name": "nftContract",
          "type": "address"
        },
        {
          "internalType": "uint256",
          "name": "tokenId",
          "type": "uint256"
        },
        {
          "internalType": "uint256",
          "name": "price",
          "type": "uint256"
        },
        {
          "internalType": "uint256",
          "name": "reservePrice",
          "type": "uint256"
        }
      ],
      "name": "listNFTForSale",
      "outputs": [],
      "stateMutability": "nonpayable",
      "type": "function"
    },
    {
      "inputs": [
        {
          "internalType": "uint256",
          "name": "",
          "type": "uint256"
        }
      ],
      "name": "marketItemAuctions",
      "outputs": [
        {
          "internalType": "uint256",
          "name": "reservePrice",
          "type": "uint256"
        },
        {
          "internalType": "uint256",
          "name": "highestBid",
          "type": "uint256"
        },
        {
          "internalType": "address payable",
          "name": "highestBidder",
          "type": "address"
        }
      ],
      "stateMutability": "view",
      "type": "function"
    },
    {
      "inputs": [
        {
          "internalType": "uint256",
          "name": "",
          "type": "uint256"
        },
        {
          "internalType": "uint256",
          "name": "",
          "type": "uint256"
        }
      ],
      "name": "marketItemBids",
      "outputs": [
        {
          "internalType": "address payable",
          "name": "bidder",
          "type": "address"
        },
        {
          "internalType": "uint256",
          "name": "amount",
          "type": "uint256"
        },
        {
          "internalType": "uint256",
          "name": "timestamp",
          "type": "uint256"
        }
      ],
      "stateMutability": "view",
      "type": "function"
    },
    {
      "inputs": [
        {
          "internalType": "uint256",
          "name": "",
          "type": "uint256"
        }
      ],
      "name": "marketItems",
      "outputs": [
        {
          "internalType": "address",
          "name": "nftContract",
          "type": "address"
        },
        {
          "internalType": "uint256",
          "name": "tokenId",
          "type": "uint256"
        },
        {
          "internalType": "uint256",
          "name": "price",
          "type": "uint256"
        },
        {
          "internalType": "address payable",
          "name": "creator",
          "type": "address"
        },
        {
          "internalType": "address payable",
          "name": "seller",
          "type": "address"
        }
      ],
      "stateMutability": "view",
      "type": "function"
    },
    {
      "inputs": [],
      "name": "nextMarketId",
      "outputs": [
        {
          "internalType": "uint256",
          "name": "",
          "type": "uint256"
        }
      ],
      "stateMutability": "view",
      "type": "function"
    },
    {
      "inputs": [
        {
          "internalType": "address",
          "name": "",
          "type": "address"
        },
        {
          "internalType": "uint256",
          "name": "",
          "type": "uint256"
        },
        {
          "internalType": "uint256",
          "name": "",
          "type": "uint256"
        }
      ],
      "name": "nftActivityLogs",
      "outputs": [
        {
          "internalType": "uint256",
          "name": "activityType",
          "type": "uint256"
        },
        {
          "internalType": "address",
          "name": "nftContract",
          "type": "address"
        },
        {
          "internalType": "uint256",
          "name": "tokenId",
          "type": "uint256"
        },
        {
          "internalType": "uint256",
          "name": "price",
          "type": "uint256"
        },
        {
          "internalType": "uint256",
          "name": "timestamp",
          "type": "uint256"
        },
        {
          "internalType": "uint256",
          "name": "marketId",
          "type": "uint256"
        },
        {
          "internalType": "address",
          "name": "user",
          "type": "address"
        }
      ],
      "stateMutability": "view",
      "type": "function"
    },
    {
      "inputs": [],
      "name": "owner",
      "outputs": [
        {
          "internalType": "address",
          "name": "",
          "type": "address"
        }
      ],
      "stateMutability": "view",
      "type": "function"
    },
    {
      "inputs": [
        {
          "internalType": "uint256",
          "name": "marketId",
          "type": "uint256"
        },
        {
          "internalType": "uint256",
          "name": "bidAmount",
          "type": "uint256"
        }
      ],
      "name": "placeBid",
      "outputs": [],
      "stateMutability": "payable",
      "type": "function"
    },
    {
      "inputs": [],
      "name": "platformFee",
      "outputs": [
        {
          "internalType": "uint256",
          "name": "",
          "type": "uint256"
        }
      ],
      "stateMutability": "view",
      "type": "function"
    },
    {
      "inputs": [],
      "name": "renounceOwnership",
      "outputs": [],
      "stateMutability": "nonpayable",
      "type": "function"
    },
    {
      "inputs": [],
      "name": "royaltyFee",
      "outputs": [
        {
          "internalType": "uint256",
          "name": "",
          "type": "uint256"
        }
      ],
      "stateMutability": "view",
      "type": "function"
    },
    {
      "inputs": [
        {
          "internalType": "address",
          "name": "",
          "type": "address"
        }
      ],
      "name": "supportedNFTContracts",
      "outputs": [
        {
          "internalType": "bool",
          "name": "",
          "type": "bool"
        }
      ],
      "stateMutability": "view",
      "type": "function"
    },
    {
      "inputs": [
        {
          "internalType": "address",
          "name": "newOwner",
          "type": "address"
        }
      ],
      "name": "transferOwnership",
      "outputs": [],
      "stateMutability": "nonpayable",
      "type": "function"
    },
    {
      "inputs": [
        {
          "internalType": "address",
          "name": "",
          "type": "address"
        },
        {
          "internalType": "uint256",
          "name": "",
          "type": "uint256"
        }
      ],
      "name": "userActivityLogs",
      "outputs": [
        {
          "internalType": "uint256",
          "name": "activityType",
          "type": "uint256"
        },
        {
          "internalType": "address",
          "name": "nftContract",
          "type": "address"
        },
        {
          "internalType": "uint256",
          "name": "tokenId",
          "type": "uint256"
        },
        {
          "internalType": "uint256",
          "name": "price",
          "type": "uint256"
        },
        {
          "internalType": "uint256",
          "name": "timestamp",
          "type": "uint256"
        },
        {
          "internalType": "uint256",
          "name": "marketId",
          "type": "uint256"
        },
        {
          "internalType": "address",
          "name": "user",
          "type": "address"
        }
      ],
      "stateMutability": "view",
      "type": "function"
    },
    {
      "inputs": [
        {
          "internalType": "address",
          "name": "",
          "type": "address"
        },
        {
          "internalType": "address",
          "name": "",
          "type": "address"
        },
        {
          "internalType": "uint256",
          "name": "",
          "type": "uint256"
        }
      ],
      "name": "userToMarketId",
      "outputs": [
        {
          "internalType": "uint256",
          "name": "",
          "type": "uint256"
        }
      ],
      "stateMutability": "view",
      "type": "function"
    },
    {
      "inputs": [],
      "name": "withdraw",
      "outputs": [],
      "stateMutability": "nonpayable",
      "type": "function"
    }
  ],
  "bytecode": "0x608060405260016003553480156200001657600080fd5b50604051620046303803806200463083398181016040528101906200003c9190620002d2565b83600073ffffffffffffffffffffffffffffffffffffffff168173ffffffffffffffffffffffffffffffffffffffff1603620000b25760006040517f1e4fbdf7000000000000000000000000000000000000000000000000000000008152600401620000a9919062000355565b60405180910390fd5b620000c3816200012460201b60201c565b5060018081905550826006819055508160078190555080600860006101000a81548173ffffffffffffffffffffffffffffffffffffffff021916908373ffffffffffffffffffffffffffffffffffffffff1602179055505050505062000372565b60008060009054906101000a900473ffffffffffffffffffffffffffffffffffffffff169050816000806101000a81548173ffffffffffffffffffffffffffffffffffffffff021916908373ffffffffffffffffffffffffffffffffffffffff1602179055508173ffffffffffffffffffffffffffffffffffffffff168173ffffffffffffffffffffffffffffffffffffffff167f8be0079c531659141344cd1fd0a4f28419497f9722a3daafe3b4186f6b6457e060405160405180910390a35050565b600080fd5b600073ffffffffffffffffffffffffffffffffffffffff82169050919050565b60006200021a82620001ed565b9050919050565b6200022c816200020d565b81146200023857600080fd5b50565b6000815190506200024c8162000221565b92915050565b6000819050919050565b620002678162000252565b81146200027357600080fd5b50565b60008151905062000287816200025c565b92915050565b60006200029a82620001ed565b9050919050565b620002ac816200028d565b8114620002b857600080fd5b50565b600081519050620002cc81620002a1565b92915050565b60008060008060808587031215620002ef57620002ee620001e8565b5b6000620002ff878288016200023b565b9450506020620003128782880162000276565b9350506040620003258782880162000276565b92505060606200033887828801620002bb565b91505092959194509250565b6200034f816200020d565b82525050565b60006020820190506200036c600083018462000344565b92915050565b6142ae80620003826000396000f3fe60806040526004361061019c5760003560e01c8063715018a6116100ec578063c7be7a491161008a578063ef29027d11610064578063ef29027d1461060a578063f20e5e351461064d578063f2fde38b1461068c578063fab25bb2146106b55761019c565b8063c7be7a4914610547578063ea3679a514610588578063ecbb6519146105c75761019c565b80638da5cb5b116100c65780638da5cb5b1461049f5780639f6d337e146104ca578063aaad2eab146104f3578063b8997a971461051c5761019c565b8063715018a61461040e578063730a28f4146104255780638997ea8d146104625761019c565b8063406ef2ef1161015957806351f28e141161013357806351f28e141461033557806357c90de5146103765780635ef096b51461039257806364c1e71f146103d15761019c565b8063406ef2ef146102c357806346904840146102ee57806351ed8288146103195761019c565b80630ae4c61f146101a157806326232a2e146101de5780632b1fd58a146102095780632d9b1f47146102325780633b03e2ee1461026f5780633ccfd60b146102ac575b600080fd5b3480156101ad57600080fd5b506101c860048036038101906101c391906131ee565b6106f2565b6040516101d59190613389565b60405180910390f35b3480156101ea57600080fd5b506101f3610880565b60405161020091906133ba565b60405180910390f35b34801561021557600080fd5b50610230600480360381019061022b91906133d5565b610886565b005b34801561023e57600080fd5b5061025960048036038101906102549190613402565b610d69565b60405161026691906133ba565b60405180910390f35b34801561027b57600080fd5b5061029660048036038101906102919190613455565b610da7565b6040516102a39190613389565b60405180910390f35b3480156102b857600080fd5b506102c1610f23565b005b3480156102cf57600080fd5b506102d861101b565b6040516102e591906133ba565b60405180910390f35b3480156102fa57600080fd5b50610303611021565b60405161031091906134a3565b60405180910390f35b610333600480360381019061032e91906133d5565b611047565b005b34801561034157600080fd5b5061035c600480360381019061035791906133d5565b6114ad565b60405161036d9594939291906134cd565b60405180910390f35b610390600480360381019061038b9190613520565b611543565b005b34801561039e57600080fd5b506103b960048036038101906103b49190613520565b611930565b6040516103c893929190613560565b60405180910390f35b3480156103dd57600080fd5b506103f860048036038101906103f391906133d5565b611997565b6040516104059190613697565b60405180910390f35b34801561041a57600080fd5b50610423611ab7565b005b34801561043157600080fd5b5061044c60048036038101906104479190613455565b611acb565b60405161045991906136d4565b60405180910390f35b34801561046e57600080fd5b5061048960048036038101906104849190613455565b611aeb565b6040516104969190613389565b60405180910390f35b3480156104ab57600080fd5b506104b4611e7b565b6040516104c191906136ef565b60405180910390f35b3480156104d657600080fd5b506104f160048036038101906104ec919061370a565b611ea4565b005b3480156104ff57600080fd5b5061051a600480360381019061051591906133d5565b6121b0565b005b34801561052857600080fd5b50610531612451565b60405161053e91906133ba565b60405180910390f35b34801561055357600080fd5b5061056e600480360381019061056991906133d5565b612457565b60405161057f959493929190613771565b60405180910390f35b34801561059457600080fd5b506105af60048036038101906105aa91906133d5565b612546565b6040516105be939291906137c4565b60405180910390f35b3480156105d357600080fd5b506105ee60048036038101906105e991906131ee565b612590565b60405161060197969594939291906137fb565b60405180910390f35b34801561061657600080fd5b50610631600480360381019061062c919061386a565b61262f565b60405161064497969594939291906137fb565b60405180910390f35b34801561065957600080fd5b50610674600480360381019061066f91906133d5565b6126db565b604051610683939291906138bd565b60405180910390f35b34801561069857600080fd5b506106b360048036038101906106ae9190613455565b612777565b005b3480156106c157600080fd5b506106dc60048036038101906106d791906131ee565b6127fd565b6040516106e991906136d4565b60405180910390f35b6060600960008473ffffffffffffffffffffffffffffffffffffffff1673ffffffffffffffffffffffffffffffffffffffff1681526020019081526020016000206000838152602001908152602001600020805480602002602001604051908101604052809291908181526020016000905b8282101561087457838290600052602060002090600702016040518060e0016040529081600082015481526020016001820160009054906101000a900473ffffffffffffffffffffffffffffffffffffffff1673ffffffffffffffffffffffffffffffffffffffff1673ffffffffffffffffffffffffffffffffffffffff168152602001600282015481526020016003820154815260200160048201548152602001600582015481526020016006820160009054906101000a900473ffffffffffffffffffffffffffffffffffffffff1673ffffffffffffffffffffffffffffffffffffffff1673ffffffffffffffffffffffffffffffffffffffff168152505081526020019060010190610764565b50505050905092915050565b60075481565b61088e6128b0565b60006004600083815260200190815260200160002060020154116108e7576040517f08c379a00000000000000000000000000000000000000000000000000000000081526004016108de90613951565b60405180910390fd5b60006004600083815260200190815260200160002090506000600b600084815260200190815260200160002090508160040160009054906101000a900473ffffffffffffffffffffffffffffffffffffffff1673ffffffffffffffffffffffffffffffffffffffff163373ffffffffffffffffffffffffffffffffffffffff16146109a7576040517f08c379a000000000000000000000000000000000000000000000000000000000815260040161099e906139bd565b60405180910390fd5b60008160010154905060006109da60646109cc600654856128f690919063ffffffff16565b61290c90919063ffffffff16565b90506000610a0660646109f8600754866128f690919063ffffffff16565b61290c90919063ffffffff16565b90506000610a2f82610a21858761292290919063ffffffff16565b61292290919063ffffffff16565b90508560030160009054906101000a900473ffffffffffffffffffffffffffffffffffffffff1673ffffffffffffffffffffffffffffffffffffffff166108fc849081150290604051600060405180830381858888f19350505050158015610a9b573d6000803e3d6000fd5b50600860009054906101000a900473ffffffffffffffffffffffffffffffffffffffff1673ffffffffffffffffffffffffffffffffffffffff166108fc839081150290604051600060405180830381858888f19350505050158015610b04573d6000803e3d6000fd5b508560040160009054906101000a900473ffffffffffffffffffffffffffffffffffffffff1673ffffffffffffffffffffffffffffffffffffffff166108fc829081150290604051600060405180830381858888f19350505050158015610b6f573d6000803e3d6000fd5b508560000160009054906101000a900473ffffffffffffffffffffffffffffffffffffffff1673ffffffffffffffffffffffffffffffffffffffff166323b872dd8760040160009054906101000a900473ffffffffffffffffffffffffffffffffffffffff168760020160009054906101000a900473ffffffffffffffffffffffffffffffffffffffff1689600101546040518463ffffffff1660e01b8152600401610c1d93929190613a3c565b600060405180830381600087803b158015610c3757600080fd5b505af1158015610c4b573d6000803e3d6000fd5b50505050610c8460008760000160009054906101000a900473ffffffffffffffffffffffffffffffffffffffff16886001015487612938565b610cba8660000160009054906101000a900473ffffffffffffffffffffffffffffffffffffffff1687600101546000878b612ac8565b85600101548660000160009054906101000a900473ffffffffffffffffffffffffffffffffffffffff1673ffffffffffffffffffffffffffffffffffffffff16887f61f0edf4e29915f749df1dcfcc9138ae2b9bd305a87e5a7ea0c5ae2a4b7dba648860020160009054906101000a900473ffffffffffffffffffffffffffffffffffffffff1688604051610d50929190613a73565b60405180910390a4505050505050610d66612c69565b50565b60056020528260005260406000206020528160005260406000208181548110610d9157600080fd5b9060005260206000200160009250925050505481565b6060600a60008373ffffffffffffffffffffffffffffffffffffffff1673ffffffffffffffffffffffffffffffffffffffff168152602001908152602001600020805480602002602001604051908101604052809291908181526020016000905b82821015610f1857838290600052602060002090600702016040518060e0016040529081600082015481526020016001820160009054906101000a900473ffffffffffffffffffffffffffffffffffffffff1673ffffffffffffffffffffffffffffffffffffffff1673ffffffffffffffffffffffffffffffffffffffff168152602001600282015481526020016003820154815260200160048201548152602001600582015481526020016006820160009054906101000a900473ffffffffffffffffffffffffffffffffffffffff1673ffffffffffffffffffffffffffffffffffffffff1673ffffffffffffffffffffffffffffffffffffffff168152505081526020019060010190610e08565b505050509050919050565b610f2b612c72565b610f336128b0565b600047905060008111610f7b576040517f08c379a0000000000000000000000000000000000000000000000000000000008152600401610f7290613ae8565b60405180910390fd5b3373ffffffffffffffffffffffffffffffffffffffff166108fc829081150290604051600060405180830381858888f19350505050158015610fc1573d6000803e3d6000fd5b503373ffffffffffffffffffffffffffffffffffffffff167f884edad9ce6fa2440d8a54cc123490eb96d2768479d49ff9c7366125a94243648260405161100891906133ba565b60405180910390a250611019612c69565b565b60035481565b600860009054906101000a900473ffffffffffffffffffffffffffffffffffffffff1681565b61104f6128b0565b60006004600083815260200190815260200160002060020154116110a8576040517f08c379a000000000000000000000000000000000000000000000000000000000815260040161109f90613951565b60405180910390fd5b60006004600083815260200190815260200160002090506000600b60008481526020019081526020016000209050806001015434101561111d576040517f08c379a000000000000000000000000000000000000000000000000000000000815260040161111490613b7a565b60405180910390fd5b60008160010154905060006111506064611142600654856128f690919063ffffffff16565b61290c90919063ffffffff16565b9050600061117c606461116e600754866128f690919063ffffffff16565b61290c90919063ffffffff16565b905060006111a582611197858761292290919063ffffffff16565b61292290919063ffffffff16565b90508560030160009054906101000a900473ffffffffffffffffffffffffffffffffffffffff1673ffffffffffffffffffffffffffffffffffffffff166108fc849081150290604051600060405180830381858888f19350505050158015611211573d6000803e3d6000fd5b50600860009054906101000a900473ffffffffffffffffffffffffffffffffffffffff1673ffffffffffffffffffffffffffffffffffffffff166108fc839081150290604051600060405180830381858888f1935050505015801561127a573d6000803e3d6000fd5b508560040160009054906101000a900473ffffffffffffffffffffffffffffffffffffffff1673ffffffffffffffffffffffffffffffffffffffff166108fc829081150290604051600060405180830381858888f193505050501580156112e5573d6000803e3d6000fd5b508560000160009054906101000a900473ffffffffffffffffffffffffffffffffffffffff1673ffffffffffffffffffffffffffffffffffffffff166323b872dd8760040160009054906101000a900473ffffffffffffffffffffffffffffffffffffffff163389600101546040518463ffffffff1660e01b815260040161136f93929190613b9a565b600060405180830381600087803b15801561138957600080fd5b505af115801561139d573d6000803e3d6000fd5b505050506113d660008760000160009054906101000a900473ffffffffffffffffffffffffffffffffffffffff16886001015487612938565b61140c8660000160009054906101000a900473ffffffffffffffffffffffffffffffffffffffff1687600101546000878b612ac8565b3373ffffffffffffffffffffffffffffffffffffffff1686600101548760000160009054906101000a900473ffffffffffffffffffffffffffffffffffffffff1673ffffffffffffffffffffffffffffffffffffffff167f32fa9a011b812225bafd49b27549c4492d8afa49bb3707d4fcd967111d048ba38a88604051611494929190613bd1565b60405180910390a45050505050506114aa612c69565b50565b60046020528060005260406000206000915090508060000160009054906101000a900473ffffffffffffffffffffffffffffffffffffffff16908060010154908060020154908060030160009054906101000a900473ffffffffffffffffffffffffffffffffffffffff16908060040160009054906101000a900473ffffffffffffffffffffffffffffffffffffffff16905085565b61154b6128b0565b60006004600084815260200190815260200160002060020154116115a4576040517f08c379a000000000000000000000000000000000000000000000000000000000815260040161159b90613951565b60405180910390fd5b6000600b6000848152602001908152602001600020905080600101548211611601576040517f08c379a00000000000000000000000000000000000000000000000000000000081526004016115f890613c6c565b60405180910390fd5b81341015611644576040517f08c379a000000000000000000000000000000000000000000000000000000000815260040161163b90613cd8565b60405180910390fd5b600073ffffffffffffffffffffffffffffffffffffffff168160020160009054906101000a900473ffffffffffffffffffffffffffffffffffffffff1673ffffffffffffffffffffffffffffffffffffffff161461170c578060020160009054906101000a900473ffffffffffffffffffffffffffffffffffffffff1673ffffffffffffffffffffffffffffffffffffffff166108fc82600101549081150290604051600060405180830381858888f1935050505015801561170a573d6000803e3d6000fd5b505b818160010181905550338160020160006101000a81548173ffffffffffffffffffffffffffffffffffffffff021916908373ffffffffffffffffffffffffffffffffffffffff160217905550600c600084815260200190815260200160002060405180606001604052803373ffffffffffffffffffffffffffffffffffffffff16815260200184815260200142815250908060018154018082558091505060019003906000526020600020906003020160009091909190915060008201518160000160006101000a81548173ffffffffffffffffffffffffffffffffffffffff021916908373ffffffffffffffffffffffffffffffffffffffff1602179055506020820151816001015560408201518160020155505061187a600480600086815260200190815260200160002060000160009054906101000a900473ffffffffffffffffffffffffffffffffffffffff16600460008781526020019081526020016000206001015485612938565b6118d46004600085815260200190815260200160002060000160009054906101000a900473ffffffffffffffffffffffffffffffffffffffff16600460008681526020019081526020016000206001015460048587612ac8565b3373ffffffffffffffffffffffffffffffffffffffff16837f0e54eff26401bf69b81b26f60bd85ef47f5d85275c1d268d84f68d6897431c478460405161191b91906133ba565b60405180910390a35061192c612c69565b5050565b600c602052816000526040600020818154811061194c57600080fd5b9060005260206000209060030201600091509150508060000160009054906101000a900473ffffffffffffffffffffffffffffffffffffffff16908060010154908060020154905083565b606060035482106119dd576040517f08c379a00000000000000000000000000000000000000000000000000000000081526004016119d490613d44565b60405180910390fd5b600c6000838152602001908152602001600020805480602002602001604051908101604052809291908181526020016000905b82821015611aac57838290600052602060002090600302016040518060600160405290816000820160009054906101000a900473ffffffffffffffffffffffffffffffffffffffff1673ffffffffffffffffffffffffffffffffffffffff1673ffffffffffffffffffffffffffffffffffffffff1681526020016001820154815260200160028201548152505081526020019060010190611a10565b505050509050919050565b611abf612c72565b611ac96000612cf9565b565b60026020528060005260406000206000915054906101000a900460ff1681565b6060600080600190505b600354811015611bdf5760006004600083815260200190815260200160002090508473ffffffffffffffffffffffffffffffffffffffff168160000160009054906101000a900473ffffffffffffffffffffffffffffffffffffffff1673ffffffffffffffffffffffffffffffffffffffff1603611bd357600960008673ffffffffffffffffffffffffffffffffffffffff1673ffffffffffffffffffffffffffffffffffffffff1681526020019081526020016000206000826001015481526020019081526020016000208054905083611bd09190613d93565b92505b50806001019050611af5565b5060008167ffffffffffffffff811115611bfc57611bfb613dc7565b5b604051908082528060200260200182016040528015611c3557816020015b611c2261307a565b815260200190600190039081611c1a5790505b509050600080600190505b600354811015611e6f5760006004600083815260200190815260200160002090508673ffffffffffffffffffffffffffffffffffffffff168160000160009054906101000a900473ffffffffffffffffffffffffffffffffffffffff1673ffffffffffffffffffffffffffffffffffffffff1603611e63576000600960008973ffffffffffffffffffffffffffffffffffffffff1673ffffffffffffffffffffffffffffffffffffffff168152602001908152602001600020600083600101548152602001908152602001600020905060005b8180549050811015611e6057818181548110611d3257611d31613df6565b5b90600052602060002090600702016040518060e0016040529081600082015481526020016001820160009054906101000a900473ffffffffffffffffffffffffffffffffffffffff1673ffffffffffffffffffffffffffffffffffffffff1673ffffffffffffffffffffffffffffffffffffffff168152602001600282015481526020016003820154815260200160048201548152602001600582015481526020016006820160009054906101000a900473ffffffffffffffffffffffffffffffffffffffff1673ffffffffffffffffffffffffffffffffffffffff1673ffffffffffffffffffffffffffffffffffffffff1681525050868681518110611e3c57611e3b613df6565b5b60200260200101819052508480611e5290613e25565b955050806001019050611d13565b50505b50806001019050611c40565b50819350505050919050565b60008060009054906101000a900473ffffffffffffffffffffffffffffffffffffffff16905090565b3373ffffffffffffffffffffffffffffffffffffffff168473ffffffffffffffffffffffffffffffffffffffff16636352211e856040518263ffffffff1660e01b8152600401611ef491906133ba565b602060405180830381865afa158015611f11573d6000803e3d6000fd5b505050506040513d601f19601f82011682018060405250810190611f359190613e82565b73ffffffffffffffffffffffffffffffffffffffff1614611f8b576040517f08c379a0000000000000000000000000000000000000000000000000000000008152600401611f8290613f21565b60405180910390fd5b8373ffffffffffffffffffffffffffffffffffffffff1663e985e9c533306040518363ffffffff1660e01b8152600401611fc6929190613f41565b602060405180830381865afa158015611fe3573d6000803e3d6000fd5b505050506040513d601f19601f820116820180604052508101906120079190613f96565b612046576040517f08c379a000000000000000000000000000000000000000000000000000000000815260040161203d90614035565b60405180910390fd5b81811015612089576040517f08c379a0000000000000000000000000000000000000000000000000000000008152600401612080906140c7565b60405180910390fd5b600061209785858533612dbd565b9050604051806060016040528083815260200160008152602001600073ffffffffffffffffffffffffffffffffffffffff16815250600b6000838152602001908152602001600020600082015181600001556020820151816001015560408201518160020160006101000a81548173ffffffffffffffffffffffffffffffffffffffff021916908373ffffffffffffffffffffffffffffffffffffffff16021790555090505061214a6002868686612938565b612158858560028685612ac8565b838573ffffffffffffffffffffffffffffffffffffffff167f36e94395fafcb0d2a9bcfcdd5cef807ab52a1f4382906992ebdc18de5f1472c483866040516121a1929190613bd1565b60405180910390a35050505050565b3373ffffffffffffffffffffffffffffffffffffffff166004600083815260200190815260200160002060040160009054906101000a900473ffffffffffffffffffffffffffffffffffffffff1673ffffffffffffffffffffffffffffffffffffffff1614612254576040517f08c379a000000000000000000000000000000000000000000000000000000000815260040161224b90614159565b60405180910390fd5b60006004600083815260200190815260200160002090508060000160009054906101000a900473ffffffffffffffffffffffffffffffffffffffff1673ffffffffffffffffffffffffffffffffffffffff1663a22cb4653060006040518363ffffffff1660e01b81526004016122cb929190614179565b600060405180830381600087803b1580156122e557600080fd5b505af11580156122f9573d6000803e3d6000fd5b5050505061233360038260000160009054906101000a900473ffffffffffffffffffffffffffffffffffffffff1683600101546000612938565b61236a8160000160009054906101000a900473ffffffffffffffffffffffffffffffffffffffff1682600101546003600086612ac8565b600b600083815260200190815260200160002060008082016000905560018201600090556002820160006101000a81549073ffffffffffffffffffffffffffffffffffffffff02191690555050600c600083815260200190815260200160002060006123d691906130e3565b80600101548160000160009054906101000a900473ffffffffffffffffffffffffffffffffffffffff1673ffffffffffffffffffffffffffffffffffffffff167f92c6a11a10a02c35b707769896b61a266c0111f6576a38b86edd71ad02ba0b618460405161244591906133ba565b60405180910390a35050565b60065481565b60008060008060008060046000888152602001908152602001600020905060035487106124b9576040517f08c379a00000000000000000000000000000000000000000000000000000000081526004016124b090613d44565b60405180910390fd5b8060000160009054906101000a900473ffffffffffffffffffffffffffffffffffffffff16816001015482600201548360030160009054906101000a900473ffffffffffffffffffffffffffffffffffffffff168460040160009054906101000a900473ffffffffffffffffffffffffffffffffffffffff16955095509550955095505091939590929450565b600b6020528060005260406000206000915090508060000154908060010154908060020160009054906101000a900473ffffffffffffffffffffffffffffffffffffffff16905083565b600a60205281600052604060002081815481106125ac57600080fd5b9060005260206000209060070201600091509150508060000154908060010160009054906101000a900473ffffffffffffffffffffffffffffffffffffffff16908060020154908060030154908060040154908060050154908060060160009054906101000a900473ffffffffffffffffffffffffffffffffffffffff16905087565b6009602052826000526040600020602052816000526040600020818154811061265757600080fd5b906000526020600020906007020160009250925050508060000154908060010160009054906101000a900473ffffffffffffffffffffffffffffffffffffffff16908060020154908060030154908060040154908060050154908060060160009054906101000a900473ffffffffffffffffffffffffffffffffffffffff16905087565b600080600080600b60008681526020019081526020016000209050600354851061273a576040517f08c379a000000000000000000000000000000000000000000000000000000000815260040161273190613d44565b60405180910390fd5b806000015481600101548260020160009054906101000a900473ffffffffffffffffffffffffffffffffffffffff16935093509350509193909250565b61277f612c72565b600073ffffffffffffffffffffffffffffffffffffffff168173ffffffffffffffffffffffffffffffffffffffff16036127f15760006040517f1e4fbdf70000000000000000000000000000000000000000000000000000000081526004016127e891906136ef565b60405180910390fd5b6127fa81612cf9565b50565b600080600190505b6003548110156128a45760006004600083815260200190815260200160002090508473ffffffffffffffffffffffffffffffffffffffff168160000160009054906101000a900473ffffffffffffffffffffffffffffffffffffffff1673ffffffffffffffffffffffffffffffffffffffff161480156128885750838160010154145b15612898576001925050506128aa565b50806001019050612805565b50600090505b92915050565b6002600154036128ec576040517f3ee5aeb500000000000000000000000000000000000000000000000000000000815260040160405180910390fd5b6002600181905550565b6000818361290491906141a2565b905092915050565b6000818361291a9190614213565b905092915050565b600081836129309190614244565b905092915050565b600a60003373ffffffffffffffffffffffffffffffffffffffff1673ffffffffffffffffffffffffffffffffffffffff1681526020019081526020016000206040518060e001604052808681526020018573ffffffffffffffffffffffffffffffffffffffff168152602001848152602001838152602001428152602001600081526020013373ffffffffffffffffffffffffffffffffffffffff1681525090806001815401808255809150506001900390600052602060002090600702016000909190919091506000820151816000015560208201518160010160006101000a81548173ffffffffffffffffffffffffffffffffffffffff021916908373ffffffffffffffffffffffffffffffffffffffff16021790555060408201518160020155606082015181600301556080820151816004015560a0820151816005015560c08201518160060160006101000a81548173ffffffffffffffffffffffffffffffffffffffff021916908373ffffffffffffffffffffffffffffffffffffffff160217905550505050505050565b600960008673ffffffffffffffffffffffffffffffffffffffff1673ffffffffffffffffffffffffffffffffffffffff16815260200190815260200160002060008581526020019081526020016000206040518060e001604052808581526020018773ffffffffffffffffffffffffffffffffffffffff1681526020018681526020018481526020014281526020018381526020013373ffffffffffffffffffffffffffffffffffffffff1681525090806001815401808255809150506001900390600052602060002090600702016000909190919091506000820151816000015560208201518160010160006101000a81548173ffffffffffffffffffffffffffffffffffffffff021916908373ffffffffffffffffffffffffffffffffffffffff16021790555060408201518160020155606082015181600301556080820151816004015560a0820151816005015560c08201518160060160006101000a81548173ffffffffffffffffffffffffffffffffffffffff021916908373ffffffffffffffffffffffffffffffffffffffff16021790555050505050505050565b60018081905550565b612c7a613072565b73ffffffffffffffffffffffffffffffffffffffff16612c98611e7b565b73ffffffffffffffffffffffffffffffffffffffff1614612cf757612cbb613072565b6040517f118cdaa7000000000000000000000000000000000000000000000000000000008152600401612cee91906136ef565b60405180910390fd5b565b60008060009054906101000a900473ffffffffffffffffffffffffffffffffffffffff169050816000806101000a81548173ffffffffffffffffffffffffffffffffffffffff021916908373ffffffffffffffffffffffffffffffffffffffff1602179055508173ffffffffffffffffffffffffffffffffffffffff168173ffffffffffffffffffffffffffffffffffffffff167f8be0079c531659141344cd1fd0a4f28419497f9722a3daafe3b4186f6b6457e060405160405180910390a35050565b6000600560008373ffffffffffffffffffffffffffffffffffffffff1673ffffffffffffffffffffffffffffffffffffffff16815260200190815260200160002060008673ffffffffffffffffffffffffffffffffffffffff1673ffffffffffffffffffffffffffffffffffffffff16815260200190815260200160002060035490806001815401808255809150506001900390600052602060002001600090919091909150556040518060a001604052808673ffffffffffffffffffffffffffffffffffffffff1681526020018581526020018481526020018673ffffffffffffffffffffffffffffffffffffffff16636352211e876040518263ffffffff1660e01b8152600401612ed091906133ba565b602060405180830381865afa158015612eed573d6000803e3d6000fd5b505050506040513d601f19601f82011682018060405250810190612f119190613e82565b73ffffffffffffffffffffffffffffffffffffffff1681526020018373ffffffffffffffffffffffffffffffffffffffff1681525060046000600354815260200190815260200160002060008201518160000160006101000a81548173ffffffffffffffffffffffffffffffffffffffff021916908373ffffffffffffffffffffffffffffffffffffffff160217905550602082015181600101556040820151816002015560608201518160030160006101000a81548173ffffffffffffffffffffffffffffffffffffffff021916908373ffffffffffffffffffffffffffffffffffffffff16021790555060808201518160040160006101000a81548173ffffffffffffffffffffffffffffffffffffffff021916908373ffffffffffffffffffffffffffffffffffffffff160217905550905050600060035490506003600081548092919061306190613e25565b919050555080915050949350505050565b600033905090565b6040518060e0016040528060008152602001600073ffffffffffffffffffffffffffffffffffffffff16815260200160008152602001600081526020016000815260200160008152602001600073ffffffffffffffffffffffffffffffffffffffff1681525090565b50805460008255600302906000526020600020908101906131049190613107565b50565b5b8082111561315157600080820160006101000a81549073ffffffffffffffffffffffffffffffffffffffff02191690556001820160009055600282016000905550600301613108565b5090565b600080fd5b600073ffffffffffffffffffffffffffffffffffffffff82169050919050565b60006131858261315a565b9050919050565b6131958161317a565b81146131a057600080fd5b50565b6000813590506131b28161318c565b92915050565b6000819050919050565b6131cb816131b8565b81146131d657600080fd5b50565b6000813590506131e8816131c2565b92915050565b6000806040838503121561320557613204613155565b5b6000613213858286016131a3565b9250506020613224858286016131d9565b9150509250929050565b600081519050919050565b600082825260208201905092915050565b6000819050602082019050919050565b613263816131b8565b82525050565b6132728161317a565b82525050565b60e08201600082015161328e600085018261325a565b5060208201516132a16020850182613269565b5060408201516132b4604085018261325a565b5060608201516132c7606085018261325a565b5060808201516132da608085018261325a565b5060a08201516132ed60a085018261325a565b5060c082015161330060c0850182613269565b50505050565b60006133128383613278565b60e08301905092915050565b6000602082019050919050565b60006133368261322e565b6133408185613239565b935061334b8361324a565b8060005b8381101561337c5781516133638882613306565b975061336e8361331e565b92505060018101905061334f565b5085935050505092915050565b600060208201905081810360008301526133a3818461332b565b905092915050565b6133b4816131b8565b82525050565b60006020820190506133cf60008301846133ab565b92915050565b6000602082840312156133eb576133ea613155565b5b60006133f9848285016131d9565b91505092915050565b60008060006060848603121561341b5761341a613155565b5b6000613429868287016131a3565b935050602061343a868287016131a3565b925050604061344b868287016131d9565b9150509250925092565b60006020828403121561346b5761346a613155565b5b6000613479848285016131a3565b91505092915050565b600061348d8261315a565b9050919050565b61349d81613482565b82525050565b60006020820190506134b86000830184613494565b92915050565b6134c78161317a565b82525050565b600060a0820190506134e260008301886134be565b6134ef60208301876133ab565b6134fc60408301866133ab565b6135096060830185613494565b6135166080830184613494565b9695505050505050565b6000806040838503121561353757613536613155565b5b6000613545858286016131d9565b9250506020613556858286016131d9565b9150509250929050565b60006060820190506135756000830186613494565b61358260208301856133ab565b61358f60408301846133ab565b949350505050565b600081519050919050565b600082825260208201905092915050565b6000819050602082019050919050565b6135cc81613482565b82525050565b6060820160008201516135e860008501826135c3565b5060208201516135fb602085018261325a565b50604082015161360e604085018261325a565b50505050565b600061362083836135d2565b60608301905092915050565b6000602082019050919050565b600061364482613597565b61364e81856135a2565b9350613659836135b3565b8060005b8381101561368a5781516136718882613614565b975061367c8361362c565b92505060018101905061365d565b5085935050505092915050565b600060208201905081810360008301526136b18184613639565b905092915050565b60008115159050919050565b6136ce816136b9565b82525050565b60006020820190506136e960008301846136c5565b92915050565b600060208201905061370460008301846134be565b92915050565b6000806000806080858703121561372457613723613155565b5b6000613732878288016131a3565b9450506020613743878288016131d9565b9350506040613754878288016131d9565b9250506060613765878288016131d9565b91505092959194509250565b600060a08201905061378660008301886134be565b61379360208301876133ab565b6137a060408301866133ab565b6137ad60608301856134be565b6137ba60808301846134be565b9695505050505050565b60006060820190506137d960008301866133ab565b6137e660208301856133ab565b6137f36040830184613494565b949350505050565b600060e082019050613810600083018a6133ab565b61381d60208301896134be565b61382a60408301886133ab565b61383760608301876133ab565b61384460808301866133ab565b61385160a08301856133ab565b61385e60c08301846134be565b98975050505050505050565b60008060006060848603121561388357613882613155565b5b6000613891868287016131a3565b93505060206138a2868287016131d9565b92505060406138b3868287016131d9565b9150509250925092565b60006060820190506138d260008301866133ab565b6138df60208301856133ab565b6138ec60408301846134be565b949350505050565b600082825260208201905092915050565b7f4e4654206973206e6f7420666f722073616c6500000000000000000000000000600082015250565b600061393b6013836138f4565b915061394682613905565b602082019050919050565b6000602082019050818103600083015261396a8161392e565b9050919050565b7f4f6e6c79207468652073656c6c65722063616e20616363657074206120626964600082015250565b60006139a76020836138f4565b91506139b282613971565b602082019050919050565b600060208201905081810360008301526139d68161399a565b9050919050565b6000819050919050565b6000613a026139fd6139f88461315a565b6139dd565b61315a565b9050919050565b6000613a14826139e7565b9050919050565b6000613a2682613a09565b9050919050565b613a3681613a1b565b82525050565b6000606082019050613a516000830186613a2d565b613a5e6020830185613a2d565b613a6b60408301846133ab565b949350505050565b6000604082019050613a886000830185613a2d565b613a9560208301846133ab565b9392505050565b7f4e6f2062616c616e636520746f20776974686472617700000000000000000000600082015250565b6000613ad26016836138f4565b9150613add82613a9c565b602082019050919050565b60006020820190508181036000830152613b0181613ac5565b9050919050565b7f42696420616d6f756e74206d7573742062652067726561746572207468616e2060008201527f6f7220657175616c20746f207468652068696768657374206269640000000000602082015250565b6000613b64603b836138f4565b9150613b6f82613b08565b604082019050919050565b60006020820190508181036000830152613b9381613b57565b9050919050565b6000606082019050613baf6000830186613a2d565b613bbc60208301856134be565b613bc960408301846133ab565b949350505050565b6000604082019050613be660008301856133ab565b613bf360208301846133ab565b9392505050565b7f42696420616d6f756e74206d75737420626520686967686572207468616e207460008201527f68652063757272656e7420686967686573742062696400000000000000000000602082015250565b6000613c566036836138f4565b9150613c6182613bfa565b604082019050919050565b60006020820190508181036000830152613c8581613c49565b9050919050565b7f496e73756666696369656e742066756e64730000000000000000000000000000600082015250565b6000613cc26012836138f4565b9150613ccd82613c8c565b602082019050919050565b60006020820190508181036000830152613cf181613cb5565b9050919050565b7f496e76616c6964206d61726b6574204944000000000000000000000000000000600082015250565b6000613d2e6011836138f4565b9150613d3982613cf8565b602082019050919050565b60006020820190508181036000830152613d5d81613d21565b9050919050565b7f4e487b7100000000000000000000000000000000000000000000000000000000600052601160045260246000fd5b6000613d9e826131b8565b9150613da9836131b8565b9250828201905080821115613dc157613dc0613d64565b5b92915050565b7f4e487b7100000000000000000000000000000000000000000000000000000000600052604160045260246000fd5b7f4e487b7100000000000000000000000000000000000000000000000000000000600052603260045260246000fd5b6000613e30826131b8565b91507fffffffffffffffffffffffffffffffffffffffffffffffffffffffffffffffff8203613e6257613e61613d64565b5b600182019050919050565b600081519050613e7c8161318c565b92915050565b600060208284031215613e9857613e97613155565b5b6000613ea684828501613e6d565b91505092915050565b7f596f7520617265206e6f7420746865206f776e6572206f662074686973204e4660008201527f5400000000000000000000000000000000000000000000000000000000000000602082015250565b6000613f0b6021836138f4565b9150613f1682613eaf565b604082019050919050565b60006020820190508181036000830152613f3a81613efe565b9050919050565b6000604082019050613f5660008301856134be565b613f6360208301846134be565b9392505050565b613f73816136b9565b8114613f7e57600080fd5b50565b600081519050613f9081613f6a565b92915050565b600060208284031215613fac57613fab613155565b5b6000613fba84828501613f81565b91505092915050565b7f436f6e7472616374206973206e6f7420617070726f76656420746f207472616e60008201527f7366657220796f7572204e465400000000000000000000000000000000000000602082015250565b600061401f602d836138f4565b915061402a82613fc3565b604082019050919050565b6000602082019050818103600083015261404e81614012565b9050919050565b7f52657365727665207072696365206d757374206265206772656174657220746860008201527f616e206f7220657175616c20746f207468652070726963650000000000000000602082015250565b60006140b16038836138f4565b91506140bc82614055565b604082019050919050565b600060208201905081810360008301526140e0816140a4565b9050919050565b7f4f6e6c79207468652073656c6c65722063616e2063616e63656c20746865206c60008201527f697374696e670000000000000000000000000000000000000000000000000000602082015250565b60006141436026836138f4565b915061414e826140e7565b604082019050919050565b6000602082019050818103600083015261417281614136565b9050919050565b600060408201905061418e60008301856134be565b61419b60208301846136c5565b9392505050565b60006141ad826131b8565b91506141b8836131b8565b92508282026141c6816131b8565b915082820484148315176141dd576141dc613d64565b5b5092915050565b7f4e487b7100000000000000000000000000000000000000000000000000000000600052601260045260246000fd5b600061421e826131b8565b9150614229836131b8565b925082614239576142386141e4565b5b828204905092915050565b600061424f826131b8565b915061425a836131b8565b925082820390508181111561427257614271613d64565b5b9291505056fea26469706673582212202e97855fe88faeb288edfc7ad7ff0eaa5d13b660bd433e8983c0cc6ef292102664736f6c63430008180033",
  "linkReferences": {},
  "deployedLinkReferences": {}
}